:1000000000000420190200000102000003020000A9
:1000100005020000070200000902000000000000C5
:100020000000000000000000000000000B020000C3
:100030000D020000000000000F020000110200008D
:10004000D50D00001302000013020000130200008F
:100050001302000013020000991200006D16000048
:10006000651D0000130200001302000013020000CF
:10007000130200001302000013020000130200002C
:10008000130200001302000013020000130200001C
:10009000130200001302000013020000130200000C
:1000A00013020000130200001302000013020000FC
:1000B0001302000013020000000000000000000016
:1000C00013020000130200001302000013020000DC
:1000D00013020000130200001302000013020000CC
:1000E00013020000130200001302000000000000D1
:1000F00000000000130200000000000013020000D6
:1001000000000000000000000000000000000000EF
:1001100000000000000000000000000000000000DF
:1001200000000000000000000000000000000000CF
:1001300000000000000000000000000000000000BF
:1001400000000000000000000000000000000000AF
:10015000000000000000000000000000000000009F
:10016000000000000000000000000000000000008F
:10017000000000000000000000000000000000007F
:10018000000000000000000000000000000000006F
:10019000000000000000000000000000000000005F
:1001A000000000000000000000000000000000004F
:1001B000000000000000000000000000000000003F
:1001C000000000000000000000000000000000002F
:1001D000000000000000000000000000000000001F
:1001E000000000000000000000000000000000000F
:1001F00000000000000000000000000000000000FF
:10020000FEE7FEE7FEE7FEE7FEE7FEE7FEE7FEE7C6
:10021000FEE7FEE700F002B8FFF7FCBF0F484FF023
:100220000701884385460E4880470E48016841F41F
:1002300070010160BFF34F8FBFF36F8F00F01AB8EA
:1002400009480A490A4A884207D0521A05D0037859
:1002500001300B700131013AF9D1704700000420E0
:100260004D0B000088ED00E0202B00000000002076
:100270000000002039493A480A1A02D00722914367
:100280008D46384938480A1A06D00722914381F32F
:100290000988022282F3148834483549354A00F02F
:1002A0003EF835483549364A00F039F83548364980
:1002B000364A00F034F836483649374A00F02FF80D
:1002C00036483749374A00F02AF837483749384A1C
:1002D00000F025F837483849384A00F020F8384807
:1002E0003849002200F033F837483849002200F03E
:1002F0002EF837483749091A02F090FB364A9047E2
:1003000024482549884205D00268043003B4904748
:1003100003BCF7E700200021304A9047FEE78842FF
:1003200014D0521A12D003460B4313430324234222
:1003300006D1036804300B600431043AF9D17047E8
:10034000037801300B700131013AF9D170478842CE
:1003500002D002700130FAE770470000000004206C
:1003600000E0032000000420000004207C2D000099
:100370000000002004000020E0030000E003000073
:10038000202B00007C2D0000000000200000002039
:10039000202B0000202B0000202B0000202B000031
:1003A000202B0000202B0000202B0000202B000021
:1003B0007C2D0000802D000004000020040000209F
:1003C00004000020900500209005002090050020EA
:1003D0009005002090250020410200003106000019
:1003E00000B583B00190019B1B68184600F0B1F87E
:1003F0000346002B04D10B494FF4F67001F034FD95
:10040000019B1B681F2B02D84FF0A04306E0019B05
:100410001B6803F01F02019B1A60034B184603B0D0
:100420005DF804FB202B00000003005000B585B0F0
:100430000190084611461A4603468DF803300B46D4
:100440008DF8023013468DF8013001AB1846FFF7E6
:10045000C7FF03909DF803209DF802305B001A430C
:100460009DF801309B001A439DF818301B0242EAA8
:1004700003019DF81C301B04019A1943039B02F5EC
:10048000E07243F8221000BF05B05DF804FB00B530
:1004900085B00390002301930023009300230122E1
:1004A00001210398FFF7C2FF00BF05B05DF804FB10
:1004B00000B585B003900B468DF80B309DF80B30DE
:1004C0000022019200220092002200210398FFF7EF
:1004D000ADFF00BF05B05DF804FB00B585B001902D
:1004E00001AB1846FFF77CFF0390019B012202FA43
:1004F00003F31946039800F018F800BF05B05DF843
:1005000004FB00B585B0019001AB1846FFF768FF0A
:100510000390019B012202FA03F31946039800F0AD
:100520000EF800BF05B05DF804FB82B001900091A9
:10053000019B009AC3F8082500BF02B0704782B043
:1005400001900091019B009AC3F80C2500BF02B0F6
:10055000704784B00190019B5B09029300230393D1
:10056000029B002B03D0029B012B04D007E04FF02D
:10057000FF33039303E04FF6FF73039300BF019B28
:1005800003F01F030193039A019B22FA03F303F084
:100590000103DBB2184604B07047000082B001903E
:1005A000019B1B78002B02D1024B01221A7000BF65
:1005B00002B070470600002000B585B00A4B1B68EA
:1005C000039303AB0949184601F07CF9084A6B46CE
:1005D00007CA03C31A706B461946002001F0E2F9FE
:1005E00000BF05B05DF804FB502B00009D05000026
:1005F000542B000008B50C4B00221A7001210B4847
:1006000001F04EFA01F0F0FA00E000BF064B1B7853
:10061000DBB283F00103DBB2002BF6D1034BB3F95D
:100620000030184608BD00BF06000020040000206E
:1006300000B52DED028B8BB04F49002001F0BCFDC1
:100640000420FFF724FF0320FFF721FF0420FFF71A
:1006500058FF0320FFF755FFFFF7AEFF0023059378
:10066000002309930420FFF74CFF0320FFF749FF05
:100670000320FFF70CFF0023049303E000BF049B5B
:1006800001330493049B41F287329342F6DD00214B
:100690000320FFF70DFF0420FFF71FFF0023059342
:1006A000FFF7A8FF0990059B0133059300230393EF
:1006B00003E000BF039B01330393039B092BF8DD89
:1006C000099BB3F5FF7F03DC059B2C4A9342E7D9D6
:1006D0000420FFF716FF0320FFF7D9FE0320FFF7E2
:1006E00010FF059B07EE903AF8EE677A9FED247AAB
:1006F00067EE877ACDED087ADDED087AF1EE677A5C
:100700009FED207A87EE878A099B07EE903AB8EE34
:10071000E77ADFED1D6AC7EE267AB7EE007A77EE4C
:10072000677AB0EE670A02F00FF9B0EE407AC8EED1
:10073000077ACDED077ADDED077A9FED147A77EE33
:10074000877ACDED077ADDED077A9FED117A67EEB6
:10075000877AB6EE007A77EE877AFCEEE77A17EEC4
:10076000903A0693059A069B00931346099A094905
:10077000002002F0BDF871E7602B00003F420F003F
:10078000BD37063500D8564900C07F447FE4F12DBF
:10079000A5D46853802B0000BFF34F8F00BF064BDA
:1007A000DB6803F4E0620449044B1343CB60BFF3FE
:1007B0004F8F00BF00BFFDE700ED00E00400FA0529
:1007C00082B0164B1B680193154B1B680093019B6D
:1007D000082B1FD1009B052B1AD801A252F823F039
:1007E000F9070000FD0700000108000005080000EF
:1007F000090800000D08000001230CE001230AE0B5
:10080000012308E0012306E0012304E0012302E0C4
:10081000012300E00023184602B0704730010010A9
:100820003401001082B0164B1B680193154B1B68F6
:100830000093019B082B1FD1009B052B1AD801A206
:1008400052F823F05D080000610800006508000010
:10085000690800006D0800007108000001230CE029
:1008600001230AE0012308E0012306E0012304E05C
:10087000012302E0012300E00023184602B0704784
:10088000300100103401001082B0164B1B68019338
:10089000154B1B680093019B082B1FD1009B052B58
:1008A0001AD801A252F823F0C1080000C5080000C0
:1008B000C9080000CD080000D1080000D5080000DC
:1008C00001230CE000230AE0002308E0002306E0F7
:1008D000002304E0002302E0002300E00023184688
:1008E00002B07047300100103401001082B0164B86
:1008F0001B680193154B1B680093019B082B1FD1AC
:10090000009B052B1AD801A252F823F025090000FC
:10091000290900002D0900003109000035090000F7
:100920003909000001230CE000230AE0002308E05D
:10093000002306E0002304E0002302E0002300E09F
:100940000023184602B07047300100103401001037
:1009500082B0164B1B680193154B1B680093019BDB
:10096000082B1FD1009B052B1AD801A252F823F0A7
:10097000890900008D090000910900009509000017
:10098000990900009D09000001230CE000230AE002
:10099000002308E0002306E0002304E0002302E037
:1009A000002300E00023184602B070473001001019
:1009B0003401001082B0164B1B680193154B1B6865
:1009C0000093019B082B1FD1009B052B1AD801A275
:1009D00052F823F0ED090000F1090000F5090000CC
:1009E000F9090000FD090000010A000001230CE0E4
:1009F00000230AE0002308E0002306E0002304E0CF
:100A0000002302E0002300E00023184602B07047F4
:100A1000300100103401001082B0164B1B680193A6
:100A2000154B1B680093019B082B1FD1009B052BC6
:100A30001AD801A252F823F0510A0000550A00000A
:100A4000590A00005D0A0000610A0000650A000002
:100A500001230CE001230AE0012308E0012306E062
:100A6000012304E0012302E0012300E000231846F3
:100A700002B07047300100103401001082B0164BF4
:100A80001B680193154B1B680093019B082B1FD11A
:100A9000009B052B1AD801A252F823F0B50A0000DA
:100AA000B90A0000BD0A0000C10A0000C50A000022
:100AB000C90A000000230CE000230AE0002308E03C
:100AC000002306E0012304E0012302E0012300E00B
:100AD0000023184602B070473001001034010010A6
:100AE00008B5FFF7CBFF0346002B07D04FF01023CC
:100AF0004FF08042D3F80832C2F8583500BF08BD25
:100B000000BF044BD3F80034002BFAD000BF00BF65
:100B1000704700BF00E0014000B583B00190054A76
:100B2000019BC2F80435FFF7EBFF00BF03B05DF88F
:100B300004FB00BF00E00140024B034A1A6000BF03
:100B4000704700BF000000200090D00308B5FFF7F9
:100B500037FE0346002B0ED04FF080430022C3F82F
:100B60000C214FF080430022C3F810214FF0804346
:100B70000022C3F83825FFF755FE0346002B76D038
:100B80004FF08053734AD3F80434C2F820354FF045
:100B90008053704AD3F80834C2F824354FF080539C
:100BA0006C4AD3F80C34C2F828354FF08053694AA8
:100BB000D3F81034C2F82C354FF08053654AD3F87F
:100BC0001434C2F830354FF08053624AD3F81834E9
:100BD000C2F834354FF080535E4AD3F81C34C2F863
:100BE00040354FF080535B4AD3F82034C2F8443587
:100BF0004FF08053574AD3F82434C2F848354FF0A9
:100C00008053544AD3F82834C2F84C354FF08053FF
:100C1000504AD3F82C34C2F850354FF080534D4A27
:100C2000D3F83034C2F854354FF08053494AD3F8E2
:100C30003434C2F860354FF08053464AD3F8383424
:100C4000C2F864354FF08053424AD3F83C34C2F8BE
:100C500068354FF080533F4AD3F84034C2F86C35C2
:100C60004FF080533B4AD3F84434C2F87035FFF755
:100C70000BFE0346002B02D0374B384A1A60FFF7B1
:100C800035FE0346002B03D0354BFB22C3F8182555
:100C9000FFF75EFE0346002B0AD0324B1B6823F0A1
:100CA0000F02314B1B6803F00F032E4913430B60F7
:100CB000FFF780FE0346002B03D02C4B4FF400724D
:100CC0001A60FFF7A9FE0346002B0DD04FF08043BA
:100CD000D3F8003403F00103002B05D04FF080431C
:100CE0006FF00102C3F80024214BD3F88830204A6A
:100CF00043F47003C2F88830BFF34F8F00BFBFF3D7
:100D00006F8F00BFFFF7ECFE4FF01023D3F80032D7
:100D1000002B05DB4FF01023D3F80432002B15DA3B
:100D20000120FFF7F9FE4FF010231222C3F8002232
:100D3000FFF7E6FE4FF010231222C3F80422FFF75C
:100D4000DFFE0020FFF7E8FEFFF726FDFFF7F4FEC9
:100D500000BF08BD00C000408C5600404881030021
:100D600000F00040E40E004058020010409602409F
:100D700000ED00E082B001904FF08042019BC2F88C
:100D8000083300BF02B0704784B00346ADF80630A8
:100D9000BDF8063003F1804300221A60BDF806302A
:100DA00003F180431B680393039B00BF04B07047AB
:100DB00082B00346ADF80630BDF8063003F180433B
:100DC0001B68002B14BF01230023DBB2184602B0BE
:100DD0007047000008B54FF48070FFF7E9FF034645
:100DE000002B14D04FF48070FFF7CEFF0120FFF7E7
:100DF000C1FF114B5B7983F00103DBB2002B06D0FE
:100E00000D4B01225A710C4B1B68002098474FF480
:100E10008270FFF7CDFF0346002B0AD04FF482709B
:100E2000FFF7B2FF0220FFF7A5FF034B1B6801206D
:100E3000984700BF08BD00BF0800002000B583B080
:100E40000346ADF80630BDF80630184600F026F827
:100E500003461B68012B0CBF01230023DBB218469D
:100E600003B05DF804FB00B585B00346ADF806306D
:100E7000BDF80630184600F011F803461A46002364
:100E80001360BDF80630184600F008F803461B68EA
:100E90000393039B00BF05B05DF804FB82B00346DB
:100EA000ADF80630BDF8063003F1804303F5C043CA
:100EB000184602B07047000082B00190034BD3F88F
:100EC0000423019B1340184602B0704700600040A5
:100ED00082B00190054A019B03F5A27352F82330BA
:100EE0001B0A03F03F03184602B070470060004041
:100EF00082B00190064A019B03F5A27352F8233099
:100F00001B0C03F00303DBB2184602B0704700BFAE
:100F10000060004000B583B00190019B1B6818463B
:100F200000F0AAF80346002B04D10B494FF4F670E9
:100F300000F09AFF019B1B681F2B02D84FF0A043C3
:100F400006E0019B1B6803F01F02019B1A60034B24
:100F5000184603B05DF804FBCC2B000000030050E2
:100F600000B585B001900B468DF8033001AB1846F3
:100F7000FFF7D0FF0390019A039B02F5E07253F84C
:100F80002230019A23F44031039B02F5E07243F8CA
:100F90002210019A039B02F5E07253F822109DF88B
:100FA00003301B04019A1943039B02F5E07243F8D6
:100FB000221000BF05B05DF804FB00B585B00190BC
:100FC00001AB1846FFF7A6FF0390019A039B02F5B9
:100FD000E07253F822301B0C03F00303DBB2184617
:100FE00005B05DF804FB000088B003900291019207
:100FF000164A05AB92E8030083E80300039B0793BE
:1010000019E0079B9B0020336B4453F80C3CD3F84A
:101010002025019B1A60079B9B0020336B4453F8EB
:101020000C3C019A1268C3F82025019B04330193FC
:10103000079B01330793039A029B1344079A9A4232
:10104000DFD300BF00BF08B0704700BFFC2B00001B
:1010500000B585B0019001AB1846FFF75BFF039028
:10106000019B012202FA03F31A46039BC3F82025D1
:1010700000BF05B05DF804FB84B00190019B5B09E3
:10108000029300230393029B002B03D0029B012BAE
:1010900004D007E04FF0FF33039303E04FF6FF73F4
:1010A000039300BF019B03F01F030193039A019B6D
:1010B00022FA03F303F00103DBB2184604B07047D1
:1010C00084B001900091009B0393019BDB08029385
:1010D000019B03F0070301930122019B02FA03F332
:1010E0000399029A0A4412781340184604B07047D4
:1010F00082B00190044A019B1344243393F90030D9
:10110000184602B0704700BF1000002082B0019066
:10111000034A019B52F82330184602B0704700BFC3
:101120001000002084B00190074A019B13445433FF
:1011300093F900308DF80F309DF80F3023F0C00385
:10114000184604B0704700BF1000002084B0019022
:10115000074A019B1344543393F900308DF80F3044
:101160009DF80F309B09DBB2184604B0704700BFF2
:101170001000002000B585B00190019A02210020E6
:10118000FFF732FF002303930BE0039B9B00019AC0
:1011900013441B68002B01D0012306E0039B01339D
:1011A0000393039B012BF0D90023184605B05DF88B
:1011B00004FB000000B587B00190002305935BE0BD
:1011C000344A059B1344543393F90030B3F1FF3F85
:1011D0004ED00598FFF7A6FF049001990498FFF7F9
:1011E0006FFF0346002B44D00598FFF7AFFF03467F
:1011F0008DF80F300498FFF7E0FE03468DF80E30AF
:101200009DF80E30022B01D1032300E002238DF85C
:101210000D309DF80D3019460498FFF7A1FE049893
:10122000FFF716FF0498FFF763FF03461846FFF722
:101230006DFF0290029B002B1BD09DF80F30032BFB
:101240000FD09DF80E30022B03D19DF80F30012BEB
:1012500007D09DF80E30032B0BD19DF80F30022BD9
:1012600007D19DF80F20029B11460498984700E093
:1012700000BF059B01330593059B002BA0D001986F
:10128000FFF778FF0346002B97D100BF00BF07B0E0
:101290005DF804FB1000002000B58BB0002309931B
:1012A00001AB00221A605A604FF48073ADF81E3013
:1012B000012306930023089321E0BDF81E30184651
:1012C000FFF7BCFD0346002B0ED00698FFF7F4FD98
:1012D0000346002B08D0BDF81E301846FFF7C3FDAB
:1012E000099A069B13430993069B5B000693BDF87E
:1012F0001E300433ADF81E30089B01330893089B61
:10130000072BDAD94FF4BE70FFF798FD0346002B88
:101310000DD04FF4BE70FFF7A6FD099B43F00043CC
:10132000099301AB1A4602210020FFF75DFE099BDD
:10133000DBB2002B29D0012306930023089321E080
:10134000069A099B1340002B16D00898FFF7C0FDA2
:1013500005900898FFF7CCFD03468DF813300898E8
:10136000FFF7D4FE0390039B002B05D09DF81320BC
:10137000039B114605989847069B5B000693089BC4
:1013800001330893089B072BDAD9099B002B03DA5A
:1013900001AB1846FFF70EFF00BF0BB05DF804FB72
:1013A00082B003468DF807309DF90730002B0CDB27
:1013B0009DF8073003F01F0205499DF907305B09CE
:1013C000012000FA02F241F8232000BF02B070476A
:1013D00000E100E082B0034600918DF807309DF9EE
:1013E0000730002B0ADB009BDAB20C499DF907306D
:1013F0005201D2B20B4483F800230BE0009BDAB217
:1014000007499DF8073003F00F03043B5201D2B2A5
:101410000B441A7600BF02B0704700BF00E100E045
:1014200000ED00E000B583B003460A468DF80730B2
:1014300013468DF806309DF80630072B03D908496E
:101440006B2000F011FD9DF806209DF90730114634
:101450001846FFF7BFFF00BF03B05DF804FB00BFF5
:10146000742C000000B583B003468DF807309DF959
:1014700007301846FFF794FF00BF03B05DF804FB88
:1014800082B003468DF807309DF8073003F18043A2
:1014900003F5E04301221A6000BF02B0704782B03A
:1014A0000346ADF80630BDF8063003F1804303F57E
:1014B000E0431B68002B14BF01230023DBB2184656
:1014C00002B0704784B00346ADF80630BDF8063070
:1014D00003F1804303F5E04300221A60BDF80630B3
:1014E00003F1804303F5E0431B680393039B00BFB4
:1014F00004B0704782B003468DF807300B468DF874
:10150000063013468DF805300A499DF807309DF8DE
:10151000052051331B010B4404331A6005499DF823
:1015200007309DF8062051331B010B441A6000BFA1
:1015300002B070470070004082B00190034A019BE6
:10154000C2F8043300BF02B0704700BF0070004013
:1015500082B00190034A019BC2F8083300BF02B079
:10156000704700BF00700040024B0122C3F8002505
:1015700000BF70470070004082B001900091054AA2
:10158000019BC2F82C36034A009BC2F8303600BFDC
:1015900002B070470070004082B003468DF80730FB
:1015A000034A9DF80730C2F8F03500BF02B070471B
:1015B0000070004082B003468DF80730034A9DF862
:1015C0000730C2F8F43500BF02B070470070004029
:1015D000024BD3F8F435DBB2184670470070004078
:1015E00000B583B0034600918DF80730009B1B784F
:1015F00003F00302009B5B781B0103F030031A43E6
:10160000009B9B781B0203F4E0631A43009BDB788A
:101610001B0303F480531A43009B1B791B0403F440
:10162000E0231A43009B5B791B0503F4801342EA15
:101630000301009B9B791B0603F080720A489DF80A
:1016400007300A431B01034403F5A3631A60009BA0
:10165000D979009B1A7A9DF807301846FFF74AFFA0
:1016600000BF03B05DF804FB0070004000B58FB010
:101670004FF48270FFF713FF0346002B46D04FF460
:101680008270FFF71FFF8E4B93F82E3083F001031B
:10169000DBB2002B04D18A4B93F82F30002B35D0CE
:1016A00000238DF81C30864B5B680893844B1B89A4
:1016B0009BB2ADF82430824BDB68002B03D1804B0A
:1016C00000221A7419E07E4B1A8B7D4B5A837C4B97
:1016D000DB687B4A53607A4B1A8B794B1A81784BC3
:1016E0000022DA60764B93F82E3083F00103DBB2F0
:1016F000002B02D00020FFF7C3FE714B1B6807AA26
:10170000104698476E4B002283F82F206C4B93F8BD
:101710002E30002B5ED04FF48070FFF7C0FE0346E2
:10172000002B57D04FF48070FFF7CCFE644B5B8BDF
:10173000634A92F82D2093421BD9614B5B8B604A20
:1017400092F82D209B1A9AB25D4B5A835C4B5A68D3
:101750005B4B1B899BB21946594B5B8BCB1A5B00C9
:101760001344574A92F82D2011461846FFF704FFFC
:1017700029E0534B5B8B524A92F82D20934214D1AF
:101780004F4BDB68002B10D04D4B012283F82F20EC
:101790004B4B00225A834A4BDB68494A92F82D2072
:1017A00011461846FFF7E8FE0DE0454B5B8B444AB7
:1017B00092F82D20934206D1414B012283F82F202D
:1017C0003F4B00225A834FF48270FFF77BFE0420C8
:1017D000FFF756FE4FF48870FFF761FE0346002BBB
:1017E0000ED04FF48870FFF76DFE354B00221A744F
:1017F00002238DF81030324B1B6804AA104698471C
:101800004FF48A70FFF74BFE0346002B07D04FF4CE
:101810008A70FFF757FE2A4B00221A744CE0284BBF
:101820005B690D9345E00D9B0A930A9B002B01D148
:10183000202303E00A9BB3FA83F3DBB20C934FF04F
:1018400000420C9B22FA03F3DB430D9A13400D93E5
:101850000C9B9BB246339BB29B00ADF82E30BDF87B
:101860002E301846FFF71BFE0346002B21D0BDF893
:101870002E301846FFF726FE01238DF80430BDF800
:101880002E30A3F58C73DB08DBB28DF80830BDF881
:101890002E30A3F58C7303F00403002B0CBF01233F
:1018A0000023DBB28DF80930054B1B6801AA1046F6
:1018B00098470D9B002BB6D100BF0FB05DF804FB1D
:1018C0006C00002000B585B001900091019B002BB9
:1018D00003D13249D82000F0C7FA009B002B03D176
:1018E0002E49D92000F0C0FA2D4B93F82C30002B54
:1018F00003D008230393039B4CE0294A009B136009
:10190000019B1B781846FFF747FE019B5B78184642
:10191000FFF750FE019BDA78214B83F82E20204BF5
:10192000012283F82C201E4B00221A741C4B00222B
:1019300083F82D201A4B00225A61194B002283F89C
:101940002F206FF00040FFF703FE4FF48270FFF787
:10195000B9FD4FF48070FFF7B5FD4FF48A70FFF7C3
:10196000B1FD019B9B7819460720FFF75BFD07201F
:10197000FFF778FD0220FFF7DFFD094B93F82E30CB
:10198000002B02D00120FFF7D7FDFFF7EDFD00236C
:101990000393039B184605B05DF804FBD42C0000AC
:1019A0006C00002000B585B0034600918DF807302B
:1019B000394B93F82C30002B04D1384940F22510D4
:1019C00000F052FA9DF80730072B04D933494FF441
:1019D000937000F049FAFFF7FBFD0346002B09D096
:1019E0002D4B93F82D30002B04D02C494FF49470DC
:1019F00000F03AFA009BDB790D2B03D8009BDB79D2
:101A0000002B04D125494FF4967000F02DFA009B6D
:101A10001B7A0D2B04D921494FF4977000F024FA5A
:101A20001D4B1B7CDBB2002B03D011230393039BC4
:101A30002DE09DF80730184A0C335B0013441B79E6
:101A4000002B07D1144B93F82D300133DAB2124B2F
:101A500083F82D209DF80730009AD1790E4A0C3377
:101A60005B0013440A461A719DF80730009A117AF8
:101A7000094A0C335B0013440A465A719DF807303B
:101A800000991846FFF7ACFD00230393039B18460B
:101A900005B05DF804FB00BF6C000020D42C0000F2
:101AA00000B585B001900B46ADF802304C4B93F871
:101AB0002C30002B04D14B494FF4E47000F0D4F9E2
:101AC000BDF80230464A92F82D2093FBF2F101FB5B
:101AD00002F29B1A002B04D0424940F2C91000F0D8
:101AE000C3F91220FFF734FD3D4B1B7CDBB2022B08
:101AF00006D11220FFF720FD11230393039B6BE017
:101B0000374B1B7CDBB2012B35D1354BDB68002B0F
:101B100006D00220FFF710FD11230393039B5BE027
:101B20002F4A019BD3602E4ABDF8023013832C4B01
:101B300093F82E3083F00103DBB2002B14D000BFEA
:101B40004FF48070FFF7ABFC034683F00103DBB278
:101B5000002BF5D14FF48070FFF7B4FCBDF80230D4
:101B600019460198FFF708FD0220FFF7E5FC002366
:101B70000393039B30E00220FFF7DEFC184B0122A9
:101B80001A74174A019B5360154ABDF8023013813D
:101B9000134B0022DA60124B93F82E30002B0BD03F
:101BA0000F4ABDF8023053830D4B93F82D30194680
:101BB0000198FFF7E1FC0CE0BDF8023019460198EE
:101BC000FFF7DAFC4FF48070FFF77CFC0020FFF792
:101BD00057FC00230393039B184605B05DF804FBF4
:101BE0006C000020D42C000000B583B0124B93F899
:101BF0002C30002B04D1114940F2132000F034F9AD
:101C0000002301930C4B1B7CDBB2012B02D0082379
:101C100001930BE0084B93F82E30002B03D00020EB
:101C2000FFF72EFC02E00420FFF72AFC019B184678
:101C300003B05DF804FB00BF6C000020D42C000052
:101C400084B001900B46ADF80230BDF80230019A25
:101C5000134400221A60BDF80230019A13441B6835
:101C60000393039B00BF04B0704782B001900B4602
:101C7000ADF80230BDF80230019A13441B68002B06
:101C800014BF01230023DBB2184602B0704782B0B4
:101C900001900091019BD3F80423009B1340002B7B
:101CA00014BF01230023DBB2184602B0704782B094
:101CB0000190019B9B0003F5A0739BB2184602B0F4
:101CC000704782B001904FF48032019B02FA03F317
:101CD000184602B0704700B587B0039002911346D2
:101CE0008DF8073000238DF8173030E09DF817305D
:101CF0001846FFF7DCFF0346ADF814309DF81730A7
:101D00001846FFF7DEFF0490BDF81430194603981B
:101D1000FFF7ABFF0346002B14D004990398FFF79D
:101D2000B6FF0346002B0DD0BDF8143019460398BA
:101D3000FFF786FF029B1B68029A5168BDF81420CA
:101D4000104698479DF8173001338DF817309DF8ED
:101D500017209DF807309A42C8D300BF00BF07B0D4
:101D60005DF804FB08B5042202490348FFF7B3FFFE
:101D700000BF08BD9C0000200080004086B003909A
:101D80000291019201238DF817309DF81730204AF7
:101D9000039B13601E4A029B53601D4A019B936084
:101DA000039B44F20102934212D0039B44F20202CD
:101DB000934220D1019B164AD360154BDB681B6808
:101DC000134A9361124BDB685B68114AD36112E0DE
:101DD000019B0F4A13610E4B1B699B680C4A5361B0
:101DE0000B4B1B691B680A4A9361094B1B695B68B3
:101DF000074AD36100BF72B600BF00BF9DF817301D
:101E0000DBB2002BFAD162B600BF00BF06B070474C
:101E1000B400002000B587B003900291019272B621
:101E200000BF039B44F20102934207D0039B44F29C
:101E30000202934205D1019B059303E0019B0493A9
:101E400000E000BF074B1B6803F00103002B00D02C
:101E500000BE019A02990398FFF790FF00BF07B0F8
:101E60005DF804FBF0ED00E000B585B0034600919D
:101E7000ADF80630BDF806300293009B039302AB29
:101E80001A46002144F20200FFF7C4FF00BF05B06C
:101E90005DF804FB00B583B0264B0093A822002117
:101EA000009800F00DFE009B03221A61009B0322A4
:101EB0005A61009B204A9A61009B204ADA61009B8C
:101EC0004FF480621A62009B00229A62009B0022FB
:101ED0005A62009B0022DA62009B174A1A66009B36
:101EE000174A5A66009B10229A66009B00221A67C6
:101EF000009B0022DA66009B00225A67BFF35F8FC7
:101F0000002301930CE0019BC3F10F030D4AD15C48
:101F1000009A019B13440A461A70019B01330193F6
:101F2000019B0F2BEFD9BFF35F8F00BF03B05DF8AC
:101F300004FB00BFD4000020442D00007C010020E1
:101F40007C050020502D000000B58BB0039002915D
:101F5000019200230893039BDB680793039B1B6993
:101F60000693069A079B9A4205D9069A079BD31AAD
:101F7000013B099307E0039B9A680699079BCB1ADC
:101F80001344013B0993039B9A68079BD31A099A50
:101F9000934228BF13460993099A019B934228BF95
:101FA00013460993039B5A68079B13440593099AA8
:101FB0000299059800F052FD089A099B1344089372
:101FC000029A099B13440293019A099BD31A019325
:101FD000079A099B13440793039B9B68079A9A42AD
:101FE00001D100230793BFF35F8F039B079ADA6049
:101FF000019B002BB2D1089B18460BB05DF804FB87
:1020000000B589B0039002910192039BDB680793AE
:10201000039B9A68079BD31A0693069A019B9A42E0
:1020200011D9039B5A68079B13440493019A0299A0
:10203000049800F013FDBFF35F8F079A019B1A44C9
:10204000039BDA601FE0069B0593039B5A68079B7E
:1020500013440493059A0299049800F0FFFC019A36
:10206000069BD31A0593039B5B680493029A069B15
:102070001344059A1946049800F0F0FCBFF35F8FF3
:10208000039B059ADA6000BF09B05DF804FB86B0D7
:102090000190019B1B690493019BDB680393049AE5
:1020A000039B9A4208D8019B9A68039BD21A049B0F
:1020B0001344013B059304E0049A039BD31A013BAC
:1020C0000593059B184606B07047000000B589B01F
:1020D000039002910192029B0693039B5A1C1346A4
:1020E0005B001344DB00204A13440593059B5B69A6
:1020F000022B29D0022B2ED8002B02D0012B13D07B
:1021000029E00598FFF7C3FF0490049A019B9A42C7
:1021100002D20023079321E0019B0793019A0699BD
:102120000598FFF76DFF19E00598FFF7B0FF0490E1
:10213000019A049B934228BF13460793079A069976
:102140000598FFF75DFF09E0019A06990598FFF7EA
:10215000FBFE079002E00023079300BF079B184691
:1021600009B05DF804FB00BFD400002000B589B0C1
:102170000390029101920F4B0793079B1B78DBB2F0
:10218000532B01D0FFF786FEEFF311834FF02001B0
:1021900081F311880693019A02990398FFF796FF3D
:1021A0000590069B83F31188059B184609B05DF8DE
:1021B00004FB00BFD400002000B585B00190009161
:1021C000009800F036FC0390039A00990198FFF7FD
:1021D000CDFF0346184605B05DF804FB00B585B099
:1021E00001900B468DF80330019B9B680393039B82
:1021F0005A1C019B5B689A420FD8019B1A68039B8B
:1022000013449DF803201A70039B5A1C019B9A608B
:10221000019BDB685A1C019BDA60019B9A68019B59
:102220005B689A4215D1019B1869019B1968019B53
:102230009B681A46FFF79AFF0246019B9B689A42E9
:1022400004D0019B4FF0FF32DA6002E0019B0022D4
:102250009A6000BF05B05DF804FB000000B58BB0CC
:102260000390029101920093029B0893012309932A
:102270000123079307E0089A019BB2FBF3F308934D
:10228000079B01330793089A019B9A42F3D2009A65
:10229000079B9A4201D9009B07930D9B03F0010312
:1022A000002B28D10C9B002B25D00D9B03F00203A3
:1022B000002B06D0009B002B03D130238DF81B3060
:1022C00002E020238DF81B300CE00C9B013B0C93AB
:1022D0009DF81B3019460398FFF780FF039BDB68CE
:1022E000002B07DB0C9B002B05D0079A0C9B9A4216
:1022F000EBD300E000BF039BDB68002B55DB009BAA
:10230000012B03D9009B013B009309E0029A099B32
:10231000B2FBF3F30593059A019B9A4200D205E0C4
:10232000099B019A02FB03F30993E8E7029A099BD0
:10233000B2FBF3F30593059B099A02FB03F3029AA0
:10234000D31A02931B4A059B13441B781946039822
:10235000FFF744FF039BDB68002B08DB099A019B16
:10236000B2FBF3F30993099B002BDFD100E000BF20
:102370000D9B03F00103002B17D00C9B002B14D0F6
:102380000AE00C9B013B0C9320210398FFF726FFEA
:10239000039BDB68002B07DB0C9B002B05D0079A07
:1023A0000C9B9A42EDD300E000BF00BF0BB05DF87C
:1023B00004FB00BF6C2D000000B589B005900491AE
:1023C00003920293049B002BB8BF5B420693012348
:1023D000079307E0039B069A92FBF3F30693079B90
:1023E00001330793039B069A9A42F3DA029A079BFA
:1023F0009A4201D9029B07930A9B002B0AD0049BA7
:10240000002B04DB0B9B03F00403002B02D00A9B80
:10241000013B0A930B9B03F00203002B02D0029BAB
:10242000002B1CD00B9B03F00103002B17D10A9B40
:10243000002B14D00AE00A9B013B0A932021059847
:10244000FFF7CCFE059BDB68002B07DB0A9B002B0C
:1024500005D0079A0A9B9A42EDD300E000BF059B86
:10246000DB68002B4ADB049B002B07DA049B5B42F2
:1024700004932D210598FFF7B1FE08E00B9B03F0B4
:102480000403002B03D02B210598FFF7A7FE059B23
:10249000DB68002B32DB0B9B03F00203002B1FD009
:1024A0000B9B03F00103002B1AD1029B002B17D1C9
:1024B0000A9B002B14D00AE00A9B013B0A933021AF
:1024C0000598FFF78BFE059BDB68002B07DB0A9B5B
:1024D000002B05D0079A0A9B9A42EDD300E000BF7B
:1024E000059BDB68002B09DB04990B9B01930A9B7E
:1024F0000093029B039A0598FFF7B0FE00BF09B056
:102500005DF804FB00B5A5B005900491039207ABFC
:1025100017934023189300231993059B1B930023C3
:102520001A93049B1B788DF88F30049B013304931E
:102530009DF88F30002B00F0C3819DF88F30252B44
:1025400040F0B28100231F9301232293049B1B7848
:102550008DF88F309DF88F30233B0D2B3ED801A294
:1025600052F823F0CD250000DD250000DD25000018
:10257000DD250000DD250000DD250000DD25000053
:10258000DD250000BD250000DD2500009D250000A3
:10259000DD250000DD250000AD2500001F9B43F078
:1025A00001031F93049B013304931AE01F9B43F024
:1025B00002031F93049B0133049312E01F9B43F01B
:1025C00004031F93049B013304930AE01F9B43F011
:1025D00008031F93049B0133049302E0002322931A
:1025E00000BF229B002BB1D100231E93049B1B78BC
:1025F0008DF88F309DF88F302F2B12D99DF88F30AA
:10260000392B0ED8049B013304931E9A13469B006A
:1026100013445B001A469DF88F301344303B1E93E1
:10262000E4E700238DF8873000232093049B1B7878
:102630008DF88F309DF88F302E2B32D1049B0133D3
:102640000493049B1B782A2B0DD1049B0133049324
:1026500001238DF88730039B1B68191D039A1160B5
:102660001B6820931DE0049B1B788DF88F309DF82C
:102670008F302F2B15D99DF88F30392B11D801238E
:102680008DF88730049B01330493209A13469B00F6
:1026900013445B001A469DF88F301344303B20935F
:1026A000E1E7049B1B788DF88F309DF88F306C2B01
:1026B00003D09DF88F30682B07D1049B013304931E
:1026C000049B1B788DF88F30EFE79DF88F30252B1A
:1026D00000F0DF80252BC0F2E280782B00F3DF8052
:1026E000582BC0F2DC80583B202B00F2D88001A28E
:1026F00052F823F0E52700009F2800009F280000E3
:102700009F2800009F2800009F2800009F280000AD
:102710009F2800009F2800009F2800009F2800009D
:10272000792700009D2700009F2800009F280000B7
:102730009F2800009F2800009F2800009F2800007D
:102740009F2800009F2800009F2800009F2800006D
:102750009F2800006F2800009F2800009F2800008D
:10276000092800009F280000C12700009F280000C2
:102770009F280000E5270000039B1B68191D039A92
:1027800011601B682293229B8DF873309DF8732093
:1027900017AB11461846FFF721FD81E0039B1B682C
:1027A000191D039A11601B68229317A81F9B0193A0
:1027B0001E9B0093209B0A222299FFF7FDFD6FE0EC
:1027C000039B1B68191D039A11601B6822932299B1
:1027D00017A81F9B01931E9B0093209B0A22FFF7C3
:1027E0003DFD5DE0039B1B68191D039A11601B688A
:1027F0002293229917A81F9B01931E9B0093209B55
:102800001022FFF72BFD4BE0039B1B68191D039A59
:1028100011601B681D931D9B002B04D1334B1D932E
:1028200000238DF887301D9B1B788DF88F301D9B02
:1028300001331D939DF88F30002B14D09DF8873005
:10284000002B02D0209B002B0FD09DF88F2017ABC0
:1028500011461846FFF7C2FC209B013B20931A9BB0
:10286000002BE0DA1CE000BF1AE000BF18E0039B79
:102870001B68191D039A11601B682293229917A8DF
:10288000002301930823009308231022FFF7E6FC9E
:1028900006E017AB25211846FFF7A0FC00E000BFBB
:1028A000049B0133049306E09DF88F2017AB11467B
:1028B0001846FFF793FC1A9B002BBFF632AE00E0E0
:1028C00000BF1A9B002B0CDD199B002B05D0199A19
:1028D00007AB19460598FFF749FC1A9B199A134450
:1028E0001A931A9B184625B05DF804FB642D00006E
:1028F0000EB400B584B0019006AB029302AB1A4649
:1029000005990198FFF7FEFD0390039B184604B05C
:102910005DF804EB03B0704710EE101AC1F3C75214
:10292000FF2A18BF002A02D1002101607047CA0D9A
:102930006FF07D0353FA82F27E2363F3DE5100EEE3
:10294000101A02607047000010EE100A4FF0FF31BD
:1029500001EBD050FE283ED280B56846FFF7DCFF81
:10296000BFEE001ABEEE002A9FED273A30EE022A93
:10297000B6EE004AB4EE430AF1EE10FAB4EE430AA2
:10298000B0EE403AD4BFB0EE423A30EE012A03EE48
:10299000044A82EE040A20EE001A9FED1C2A9FEDE5
:1029A0001C3A31EE022A21EE031A81EE021AF1EEF0
:1029B00010FA0098D8BF013802EE100AB8EEC22A09
:1029C00000EE010A9FED131A02EE010A9FED121AA2
:1029D00002EE010A08BDB4EE400AF1EE10FA0ED67E
:1029E000B5EE400AF1EE10FA07D0B5EE400AF1EE6E
:1029F00010FA48BF9FED030A70479FED010A704728
:102A0000000080FF0000C07FF304353F3A3FD4C090
:102A10003D7E0DBF83805EB90080313F082907D31A
:102A2000416040F28C51C2F2000108600021016057
:102A30007047017881B100214FF001324358C2FA4A
:102A400053F30431002BF9D093FAA3F0B0FA80F0DD
:102A500001EBD00004387047002070475AB3844619
:102A600090EA01039B071FD1830707D011F8013BB0
:102A700000F8013B013AF7D11CE08446203A09D323
:102A80002DE9F007B1E8F807A0E8F807203AF9D2F5
:102A9000BDE8F0071C3205D451F8043B40F8043B74
:102AA000043AF9D2043205D011F8013B00F8013B99
:102AB000013AF9D16046704700220B0011001A005C
:102AC00084465AB3830704D000F8011B013AF9D1B8
:102AD00024E0C9B241EA012141EA0141202A11D38F
:102AE000203A2DE9F0030B460C460D460E460F46E4
:102AF00088468946A0E8FA03203AFBD2BDE8F003F5
:102B000020320BD0042A05D340F8041B043A05D028
:102B1000042AF9D200F8011B013AFBD16046704744
:102B20002E2E2F2E2E2F2E2E2F2E2E2F2E2E2F2EC0
:102B30002E2F6D6F64756C65732F6E7266782F68BB
:102B4000616C2F6E72665F6770696F2E680000009F
:102B5000010006000000000002000002000000006A
:102B600043617061636974616E6365206D65617353
:102B70007572656D656E742073746172740A0000FD
:102B80004144433D25642C206C6F6F70733D257567
:102B90002C20433D256C752070460A002E2E2F2ECA
:102BA0002E2F2E2E2F2E2E2F2E2E2F2E2E2F696EC5
:102BB000746567726174696F6E2F6E7266782F6EBE
:102BC0007266785F676C75652E6800002E2E2F2E5A
:102BD0002E2F2E2E2F2E2E2F2E2E2F2E2E2F6D6F90
:102BE00064756C65732F6E7266782F68616C2F6EDA
:102BF00072665F6770696F2E680000000000005009
:102C000000030050433A5C55736572735C6D616EEE
:102C100064795C4465736B746F705C6E5246355FAB
:102C200053444B5F31372E312E305F646464653519
:102C300036305C6E5246355F53444B5F31372E3130
:102C40002E305F646464653536305C6D6F64756C1E
:102C500065735C6E7266785C647269766572735CCB
:102C60007372635C6E7266785F6770696F74652EED
:102C7000630000002E2E2F2E2E2F2E2E2F2E2E2FC5
:102C80002E2E2F2E2E2F696E746567726174696FF8
:102C90006E2F6E7266782F6E7266785F676C7565E0
:102CA0002E6800002E2E2F2E2E2F2E2E2F2E2E2F62
:102CB0002E2E2F2E2E2F6D6F64756C65732F6E72F6
:102CC00066782F68616C2F6E72665F7361616463F2
:102CD0002E680000433A5C55736572735C6D616EDB
:102CE00064795C4465736B746F705C6E5246355FDB
:102CF00053444B5F31372E312E305F646464653549
:102D000036305C6E5246355F53444B5F31372E315F
:102D10002E305F646464653536305C6D6F64756C4D
:102D200065735C6E7266785C647269766572735CFA
:102D30007372635C6E7266785F73616164632E6345
:102D4000000000005465726D696E616C0000000047
:102D5000000000000000545452205245474745539C
:102D600000000000284E554C4C2900003031323311
:0C2D70003435363738394142434445467B
:042D7C000090D003F0
:0400000300000219DE
:00000001FF
