:1000000000000420190200000102000003020000A9
:1000100005020000070200000902000000000000C5
:100020000000000000000000000000000B020000C3
:100030000D020000000000000F020000110200008D
:10004000D90D00001302000013020000130200008B
:1000500013020000130200009D1200007116000040
:10006000691D0000130200001302000013020000CB
:10007000130200001302000013020000130200002C
:10008000130200001302000013020000130200001C
:10009000130200001302000013020000130200000C
:1000A00013020000130200001302000013020000FC
:1000B0001302000013020000000000000000000016
:1000C00013020000130200001302000013020000DC
:1000D00013020000130200001302000013020000CC
:1000E00013020000130200001302000000000000D1
:1000F00000000000130200000000000013020000D6
:1001000000000000000000000000000000000000EF
:1001100000000000000000000000000000000000DF
:1001200000000000000000000000000000000000CF
:1001300000000000000000000000000000000000BF
:1001400000000000000000000000000000000000AF
:10015000000000000000000000000000000000009F
:10016000000000000000000000000000000000008F
:10017000000000000000000000000000000000007F
:10018000000000000000000000000000000000006F
:10019000000000000000000000000000000000005F
:1001A000000000000000000000000000000000004F
:1001B000000000000000000000000000000000003F
:1001C000000000000000000000000000000000002F
:1001D000000000000000000000000000000000001F
:1001E000000000000000000000000000000000000F
:1001F00000000000000000000000000000000000FF
:10020000FEE7FEE7FEE7FEE7FEE7FEE7FEE7FEE7C6
:10021000FEE7FEE700F002B8FFF7FCBF0F484FF023
:100220000701884385460E4880470E48016841F41F
:1002300070010160BFF34F8FBFF36F8F00F01AB8EA
:1002400009480A490A4A884207D0521A05D0037859
:1002500001300B700131013AF9D1704700000420E0
:10026000510B000088ED00E06C2B00000000002026
:100270000000002039493A480A1A02D00722914367
:100280008D46384938480A1A06D00722914381F32F
:100290000988022282F3148834483549354A00F02F
:1002A0003EF835483549364A00F039F83548364980
:1002B000364A00F034F836483649374A00F02FF80D
:1002C00036483749374A00F02AF837483749384A1C
:1002D00000F025F837483849384A00F020F8384807
:1002E0003849002200F033F837483849002200F03E
:1002F0002EF837483749091A02F02AFB364A904748
:1003000024482549884205D00268043003B4904748
:1003100003BCF7E700200021304A9047FEE78842FF
:1003200014D0521A12D003460B4313430324234222
:1003300006D1036804300B600431043AF9D17047E8
:10034000037801300B700131013AF9D170478842CE
:1003500002D002700130FAE770470000000004206C
:1003600000E003200000042000000420F82F00001B
:100370000000002018000020E0030000E00300005F
:100380006C2B0000F82F000000000020000000206F
:100390006C2B00006C2B00006C2B00006C2B000001
:1003A0006C2B00006C2B00006C2B00006C2B0000F1
:1003B000F52F000010300000180000201800002069
:1003C00018000020A8050020A8050020A80500208E
:1003D000A8050020A82500204102000079070000A0
:1003E00000B585B00190019B002B0AD0074B43F06C
:1003F00001030393019B9B010293039B029898477F
:1004000000E000BF05B05DF804FB00BFE02B00007A
:1004100000B583B00190019B1B68184600F0B1F84D
:100420000346002B04D10B494FF4F67001F01EFD7A
:10043000019B1B681F2B02D84FF0A04306E0019BD5
:100440001B6803F01F02019B1A60034B184603B0A0
:100450005DF804FB6C2B00000003005000B585B074
:100460000190084611461A4603468DF803300B46A4
:100470008DF8023013468DF8013001AB1846FFF7B6
:10048000C7FF03909DF803209DF802305B001A43DC
:100490009DF801309B001A439DF818301B0242EA78
:1004A00003019DF81C301B04019A1943039B02F5BC
:1004B000E07243F8221000BF05B05DF804FB00B500
:1004C00085B00390002301930023009300230122B1
:1004D00001210398FFF7C2FF00BF05B05DF804FBE0
:1004E00000B585B003900B468DF80B309DF80B30AE
:1004F0000022019200220092002200210398FFF7BF
:10050000ADFF00BF05B05DF804FB00B585B00190FC
:1005100001AB1846FFF77CFF0390019B012202FA12
:1005200003F31946039800F018F800BF05B05DF812
:1005300004FB00B585B0019001AB1846FFF768FFDA
:100540000390019B012202FA03F31946039800F07D
:100550000EF800BF05B05DF804FB82B00190009179
:10056000019B009AC3F8082500BF02B0704782B013
:1005700001900091019B009AC3F80C2500BF02B0C6
:10058000704784B00190019B5B09029300230393A1
:10059000029B002B03D0029B012B04D007E04FF0FD
:1005A000FF33039303E04FF6FF73039300BF019BF8
:1005B00003F01F030193039A019B22FA03F303F054
:1005C0000103DBB2184604B0704700B583B0019058
:1005D000019B002B0AD04FF47A70FFF701FF019BBB
:1005E000013B0193019B002BF5D100E000BF03B05C
:1005F0005DF804FB00B583B001900091019B002BD6
:1006000001D1054B01930099019801F05DF9034672
:10061000184603B05DF804FBD02B000000B583B092
:100620000190019B1B78002B09D1019B5B68B3F9FA
:100630000020054B1A800121044801F033FA00BF65
:1006400003B05DF804FB00BF1A0000201800002072
:1006500000B585B00C4B1B68039303AB0B491846E0
:10066000FFF7C8FF0A4A6B4607CA03C31A706B46F6
:100670001946002001F098F90121064801F012FA0C
:1006800000BF05B05DF804FB9C2B00001D060000B8
:10069000A02B00001800002008B501F0A7FA0520E3
:1006A000FFF79EFE024B1B881BB2184608BD00BF19
:1006B0001A00002000B58DB000210320FFF710FFC5
:1006C0000420FFF7FCFE0420FFF71FFF3220FFF796
:1006D00087FEFFF7E1FF0A900420FFF72AFF1420AE
:1006E000FFF77EFE0320FFF7EAFE0320FFF721FF5E
:1006F0001420FFF775FE0A9B40F2FE32934216DC8F
:100700000A9B07EE903AF8EEE77A9FED177A67EECC
:10071000876A0A9B07EE903AF8EEE77A9FED137A24
:1007200037EE677AC6EE877ACDED0B7A02E04FF0AE
:1007300000030B930E49002001F040FDDDED0B7A24
:10074000FDEEE77A17EE903A02A800930A9B094A59
:10075000202101F0BCFD02AB1946002001F02EFD66
:1007600000BF0DB05DF804FB0000C84300C07F442B
:10077000AC2B0000B02B000008B501F031FD06499C
:10078000002001F01BFDFFF763FFFFF793FF6420DC
:10079000FFF71BFFF9E700BFB82B0000BFF34F8F37
:1007A00000BF064BDB6803F4E0620449044B1343CB
:1007B000CB60BFF34F8F00BF00BFFDE700ED00E04F
:1007C0000400FA0582B0164B1B680193154B1B6899
:1007D0000093019B082B1FD1009B052B1AD801A267
:1007E00052F823F0FD070000010800000508000092
:1007F000090800000D0800001108000001230CE0AA
:1008000001230AE0012308E0012306E0012304E0BC
:10081000012302E0012300E00023184602B07047E4
:10082000300100103401001082B0164B1B68019398
:10083000154B1B680093019B082B1FD1009B052BB8
:100840001AD801A252F823F06108000065080000E0
:10085000690800006D0800007108000075080000BC
:1008600001230CE001230AE0012308E0012306E054
:10087000012304E0012302E0012300E000231846E5
:1008800002B07047300100103401001082B0164BE6
:100890001B680193154B1B680093019B082B1FD10C
:1008A000009B052B1AD801A252F823F0C5080000BE
:1008B000C9080000CD080000D1080000D5080000DC
:1008C000D908000001230CE000230AE0002308E01F
:1008D000002306E0002304E0002302E0002300E000
:1008E0000023184602B07047300100103401001098
:1008F00082B0164B1B680193154B1B680093019B3C
:10090000082B1FD1009B052B1AD801A252F823F007
:10091000290900002D0900003109000035090000F7
:10092000390900003D09000001230CE000230AE022
:10093000002308E0002306E0002304E0002302E097
:10094000002300E00023184602B070473001001079
:100950003401001082B0164B1B680193154B1B68C5
:100960000093019B082B1FD1009B052B1AD801A2D5
:1009700052F823F08D09000091090000950900004C
:10098000990900009D090000A109000001230CE065
:1009900000230AE0002308E0002306E0002304E02F
:1009A000002302E0002300E00023184602B0704755
:1009B000300100103401001082B0164B1B68019307
:1009C000154B1B680093019B082B1FD1009B052B27
:1009D0001AD801A252F823F0F1090000F50900002D
:1009E000F9090000FD090000010A0000050A0000E5
:1009F00001230CE000230AE0002308E0002306E0C6
:100A0000002304E0002302E0002300E00023184656
:100A100002B07047300100103401001082B0164B54
:100A20001B680193154B1B680093019B082B1FD17A
:100A3000009B052B1AD801A252F823F0550A00009A
:100A4000590A00005D0A0000610A0000650A000002
:100A5000690A000001230CE001230AE0012308E0F9
:100A6000012306E0012304E0012302E0012300E06A
:100A70000023184602B07047300100103401001006
:100A800082B0164B1B680193154B1B680093019BAA
:100A9000082B1FD1009B052B1AD801A252F823F076
:100AA000B90A0000BD0A0000C10A0000C50A000022
:100AB000C90A0000CD0A000000230CE000230AE070
:100AC000002308E0002306E0012304E0012302E004
:100AD000012300E00023184602B0704730010010E7
:100AE0003401001008B5FFF7CBFF0346002B07D0F9
:100AF0004FF010234FF08042D3F80832C2F8583537
:100B000000BF08BD00BF044BD3F80034002BFAD05F
:100B100000BF00BF704700BF00E0014000B583B0D8
:100B20000190054A019BC2F80435FFF7EBFF00BFB7
:100B300003B05DF804FB00BF00E00140024B034A34
:100B40001A6000BF704700BF000000200090D00373
:100B500008B5FFF737FE0346002B0ED04FF0804359
:100B60000022C3F80C214FF080430022C3F810216B
:100B70004FF080430022C3F83825FFF755FE0346A7
:100B8000002B76D04FF08053734AD3F80434C2F868
:100B900020354FF08053704AD3F80834C2F824351A
:100BA0004FF080536C4AD3F80C34C2F828354FF01C
:100BB0008053694AD3F81034C2F82C354FF0805373
:100BC000654AD3F81434C2F830354FF08053624A86
:100BD000D3F81834C2F834354FF080535E4AD3F856
:100BE0001C34C2F840354FF080535B4AD3F82034B0
:100BF000C2F844354FF08053574AD3F82434C2F832
:100C000048354FF08053544AD3F82834C2F84C3555
:100C10004FF08053504AD3F82C34C2F850354FF07F
:100C200080534D4AD3F83034C2F854354FF08053D6
:100C3000494AD3F83434C2F860354FF08053464AFD
:100C4000D3F83834C2F864354FF08053424AD3F8B1
:100C50003C34C2F868354FF080533F4AD3F84034F3
:100C6000C2F86C354FF080533B4AD3F84434C2F895
:100C70007035FFF70BFE0346002B02D0374B384A86
:100C80001A60FFF735FE0346002B03D0354BFB22DD
:100C9000C3F81825FFF75EFE0346002B0AD0324B3F
:100CA0001B6823F00F02314B1B6803F00F032E4922
:100CB00013430B60FFF780FE0346002B03D02C4B41
:100CC0004FF400721A60FFF7A9FE0346002B0DD007
:100CD0004FF08043D3F8003403F00103002B05D01C
:100CE0004FF080436FF00102C3F80024214BD3F88A
:100CF0008830204A43F47003C2F88830BFF34F8F26
:100D000000BFBFF36F8F00BFFFF7ECFE4FF0102363
:100D1000D3F80032002B05DB4FF01023D3F8043258
:100D2000002B15DA0120FFF7F9FE4FF010231222F5
:100D3000C3F80022FFF7E6FE4FF010231222C3F89B
:100D40000422FFF7DFFE0020FFF7E8FEFFF726FD95
:100D5000FFF7F4FE00BF08BD00C000408C56004005
:100D60004881030000F00040E40E004058020010EB
:100D70004096024000ED00E082B001904FF08042CA
:100D8000019BC2F8083300BF02B0704784B003462D
:100D9000ADF80630BDF8063003F1804300221A603A
:100DA000BDF8063003F180431B680393039B00BF2B
:100DB00004B0704782B00346ADF80630BDF8063087
:100DC00003F180431B68002B14BF01230023DBB217
:100DD000184602B07047000008B54FF48070FFF766
:100DE000E9FF0346002B14D04FF48070FFF7CEFFCD
:100DF0000120FFF7C1FF114B5B7983F00103DBB2E8
:100E0000002B06D00D4B01225A710C4B1B680020A1
:100E100098474FF48270FFF7CDFF0346002B0AD0AE
:100E20004FF48270FFF7B2FF0220FFF7A5FF034BDC
:100E30001B680120984700BF08BD00BF1C000020B0
:100E400000B583B00346ADF80630BDF8063018464D
:100E500000F026F803461B68012B0CBF012300237A
:100E6000DBB2184603B05DF804FB00B585B003465D
:100E7000ADF80630BDF80630184600F011F803460C
:100E80001A4600231360BDF80630184600F008F833
:100E900003461B680393039B00BF05B05DF804FB8A
:100EA00082B00346ADF80630BDF8063003F180434A
:100EB00003F5C043184602B07047000082B00190AD
:100EC000034BD3F80423019B1340184602B070472C
:100ED0000060004082B00190054A019B03F5A273B7
:100EE00052F823301B0A03F03F03184602B0704744
:100EF0000060004082B00190064A019B03F5A27396
:100F000052F823301B0C03F00303DBB2184602B087
:100F1000704700BF0060004000B583B00190019BA6
:100F20001B68184600F0AAF80346002B04D10B49B1
:100F30004FF4F67000F09AFF019B1B681F2B02D83C
:100F40004FF0A04306E0019B1B6803F01F02019BCA
:100F50001A60034B184603B05DF804FB182C000020
:100F60000003005000B585B001900B468DF80330AA
:100F700001AB1846FFF7D0FF0390019A039B02F5DF
:100F8000E07253F82230019A23F44031039B02F5BA
:100F9000E07243F82210019A039B02F5E07253F8C5
:100FA00022109DF803301B04019A1943039B02F59C
:100FB000E07243F8221000BF05B05DF804FB00B5F5
:100FC00085B0019001AB1846FFF7A6FF0390019A88
:100FD000039B02F5E07253F822301B0C03F003036D
:100FE000DBB2184605B05DF804FB000088B0039042
:100FF00002910192164A05AB92E8030083E80300D0
:10100000039B079319E0079B9B0020336B4453F825
:101010000C3CD3F82025019B1A60079B9B002033D2
:101020006B4453F80C3C019A1268C3F82025019BCD
:1010300004330193079B01330793039A029B1344E4
:10104000079A9A42DFD300BF00BF08B0704700BFC5
:10105000482C000000B585B0019001AB1846FFF7A1
:101060005BFF0390019B012202FA03F31A46039BE4
:10107000C3F8202500BF05B05DF804FB84B00190E3
:10108000019B5B09029300230393029B002B03D077
:10109000029B012B04D007E04FF0FF33039303E0E2
:1010A0004FF6FF73039300BF019B03F01F030193EF
:1010B000039A019B22FA03F303F00103DBB2184603
:1010C00004B0704784B001900091009B0393019B92
:1010D000DB080293019B03F0070301930122019BAC
:1010E00002FA03F30399029A0A441278134018464D
:1010F00004B0704782B00190044A019B134424332A
:1011000093F90030184602B0704700BF2400002059
:1011100082B00190034A019B52F82330184602B076
:10112000704700BF2400002084B00190074A019B53
:101130001344543393F900308DF80F309DF80F307D
:1011400023F0C003184604B0704700BF24000020FD
:1011500084B00190074A019B1344543393F9003043
:101160008DF80F309DF80F309B09DBB2184604B0A4
:10117000704700BF2400002000B585B00190019A9F
:1011800002210020FFF732FF002303930BE0039BB3
:101190009B00019A13441B68002B01D0012306E039
:1011A000039B01330393039B012BF0D900231846C3
:1011B00005B05DF804FB000000B587B00190002386
:1011C00005935BE0344A059B1344543393F9003094
:1011D000B3F1FF3F4ED00598FFF7A6FF04900199A9
:1011E0000498FFF76FFF0346002B44D00598FFF7E4
:1011F000AFFF03468DF80F300498FFF7E0FE03467B
:101200008DF80E309DF80E30022B01D1032300E043
:1012100002238DF80D309DF80D3019460498FFF724
:10122000A1FE0498FFF716FF0498FFF763FF03463B
:101230001846FFF76DFF0290029B002B1BD09DF814
:101240000F30032B0FD09DF80E30022B03D19DF8E9
:101250000F30012B07D09DF80E30032B0BD19DF8DA
:101260000F30022B07D19DF80F20029B11460498E6
:10127000984700E000BF059B01330593059B002BB9
:10128000A0D00198FFF778FF0346002B97D100BF4D
:1012900000BF07B05DF804FB2400002000B58BB050
:1012A0000023099301AB00221A605A604FF4807347
:1012B000ADF81E30012306930023089321E0BDF80A
:1012C0001E301846FFF7BCFD0346002B0ED00698D3
:1012D000FFF7F4FD0346002B08D0BDF81E3018467A
:1012E000FFF7C3FD099A069B13430993069B5B0016
:1012F0000693BDF81E300433ADF81E30089B013351
:101300000893089B072BDAD94FF4BE70FFF798FDBE
:101310000346002B0DD04FF4BE70FFF7A6FD099BCE
:1013200043F00043099301AB1A4602210020FFF766
:101330005DFE099BDBB2002B29D00123069300231D
:10134000089321E0069A099B1340002B16D00898B9
:10135000FFF7C0FD05900898FFF7CCFD03468DF818
:1013600013300898FFF7D4FE0390039B002B05D0A1
:101370009DF81320039B114605989847069B5B0038
:101380000693089B01330893089B072BDAD9099B26
:10139000002B03DA01AB1846FFF70EFF00BF0BB0BE
:1013A0005DF804FB82B003468DF807309DF90730E5
:1013B000002B0CDB9DF8073003F01F0205499DF957
:1013C00007305B09012000FA02F241F8232000BF38
:1013D00002B0704700E100E082B0034600918DF852
:1013E00007309DF90730002B0ADB009BDAB20C496D
:1013F0009DF907305201D2B20B4483F800230BE071
:10140000009BDAB207499DF8073003F00F03043B55
:101410005201D2B20B441A7600BF02B0704700BF2F
:1014200000E100E000ED00E000B583B003460A46AD
:101430008DF8073013468DF806309DF80630072BDF
:1014400003D908496B2000F011FD9DF806209DF995
:10145000073011461846FFF7BFFF00BF03B05DF825
:1014600004FB00BFC02C000000B583B003468DF81C
:1014700007309DF907301846FFF794FF00BF03B00F
:101480005DF804FB82B003468DF807309DF8073005
:1014900003F1804303F5E04301221A6000BF02B06C
:1014A000704782B00346ADF80630BDF8063003F150
:1014B000804303F5E0431B68002B14BF0123002386
:1014C000DBB2184602B0704784B00346ADF8063070
:1014D000BDF8063003F1804303F5E04300221A60B3
:1014E000BDF8063003F1804303F5E0431B68039326
:1014F000039B00BF04B0704782B003468DF80730ED
:101500000B468DF8063013468DF805300A499DF8D4
:1015100007309DF8052051331B010B4404331A603A
:1015200005499DF807309DF8062051331B010B44F7
:101530001A6000BF02B070470070004082B0019096
:10154000034A019BC2F8043300BF02B0704700BFDA
:101550000070004082B00190034A019BC2F808333A
:1015600000BF02B0704700BF00700040024B012274
:10157000C3F8002500BF70470070004082B00190A2
:101580000091054A019BC2F82C36034A009BC2F821
:10159000303600BF02B070470070004082B0034692
:1015A0008DF80730034A9DF80730C2F8F03500BFC8
:1015B00002B070470070004082B003468DF80730DB
:1015C000034A9DF80730C2F8F43500BF02B07047F7
:1015D00000700040024BD3F8F435DBB21846704778
:1015E0000070004000B583B0034600918DF80730CD
:1015F000009B1B7803F00302009B5B781B0103F048
:1016000030031A43009B9B781B0203F4E0631A43E8
:10161000009BDB781B0303F480531A43009B1B7968
:101620001B0403F4E0231A43009B5B791B0503F4BE
:10163000801342EA0301009B9B791B0603F0807232
:101640000A489DF807300A431B01034403F5A363CE
:101650001A60009BD979009B1A7A9DF807301846CA
:10166000FFF74AFF00BF03B05DF804FB00700040C5
:1016700000B58FB04FF48270FFF713FF0346002BC5
:1016800046D04FF48270FFF71FFF8E4B93F82E3039
:1016900083F00103DBB2002B04D18A4B93F82F3087
:1016A000002B35D000238DF81C30864B5B680893E7
:1016B000844B1B899BB2ADF82430824BDB68002B36
:1016C00003D1804B00221A7419E07E4B1A8B7D4B9C
:1016D0005A837C4BDB687B4A53607A4B1A8B794B7D
:1016E0001A81784B0022DA60764B93F82E3083F023
:1016F0000103DBB2002B02D00020FFF7C3FE714BC9
:101700001B6807AA104698476E4B002283F82F20CB
:101710006C4B93F82E30002B5ED04FF48070FFF7A7
:10172000C0FE0346002B57D04FF48070FFF7CCFE6D
:10173000644B5B8B634A92F82D2093421BD9614B1B
:101740005B8B604A92F82D209B1A9AB25D4B5A83AC
:101750005C4B5A685B4B1B899BB21946594B5B8BA0
:10176000CB1A5B001344574A92F82D2011461846B5
:10177000FFF704FF29E0534B5B8B524A92F82D2070
:10178000934214D14F4BDB68002B10D04D4B0122FC
:1017900083F82F204B4B00225A834A4BDB68494A7F
:1017A00092F82D2011461846FFF7E8FE0DE0454B54
:1017B0005B8B444A92F82D20934206D1414B012283
:1017C00083F82F203F4B00225A834FF48270FFF79B
:1017D0007BFE0420FFF756FE4FF48870FFF761FE92
:1017E0000346002B0ED04FF48870FFF76DFE354B8B
:1017F00000221A7402238DF81030324B1B6804AAA1
:10180000104698474FF48A70FFF74BFE0346002BB3
:1018100007D04FF48A70FFF757FE2A4B00221A7444
:101820004CE0284B5B690D9345E00D9B0A930A9BA6
:10183000002B01D1202303E00A9BB3FA83F3DBB230
:101840000C934FF000420C9B22FA03F3DB430D9AFA
:1018500013400D930C9B9BB246339BB29B00ADF89B
:101860002E30BDF82E301846FFF71BFE0346002B26
:1018700021D0BDF82E301846FFF726FE01238DF843
:101880000430BDF82E30A3F58C73DB08DBB28DF885
:101890000830BDF82E30A3F58C7303F00403002B41
:1018A0000CBF01230023DBB28DF80930054B1B6808
:1018B00001AA104698470D9B002BB6D100BF0FB070
:1018C0005DF804FB8000002000B585B00190009118
:1018D000019B002B03D13249D82000F0C7FA009BAE
:1018E000002B03D12E49D92000F0C0FA2D4B93F8DC
:1018F0002C30002B03D008230393039B4CE0294A90
:10190000009B1360019B1B781846FFF747FE019B65
:101910005B781846FFF750FE019BDA78214B83F87D
:101920002E20204B012283F82C201E4B00221A74FB
:101930001C4B002283F82D201A4B00225A61194BB0
:10194000002283F82F206FF00040FFF703FE4FF4D2
:101950008270FFF7B9FD4FF48070FFF7B5FD4FF4CB
:101960008A70FFF7B1FD019B9B7819460720FFF7AE
:101970005BFD0720FFF778FD0220FFF7DFFD094B35
:1019800093F82E30002B02D00120FFF7D7FDFFF790
:10199000EDFD00230393039B184605B05DF804FB9F
:1019A000202D00008000002000B585B00346009186
:1019B0008DF80730394B93F82C30002B04D138497F
:1019C00040F2251000F052FA9DF80730072B04D999
:1019D00033494FF4937000F049FAFFF7FBFD0346DB
:1019E000002B09D02D4B93F82D30002B04D02C491F
:1019F0004FF4947000F03AFA009BDB790D2B03D87A
:101A0000009BDB79002B04D125494FF4967000F040
:101A10002DFA009B1B7A0D2B04D921494FF49770A6
:101A200000F024FA1D4B1B7CDBB2002B03D01123EA
:101A30000393039B2DE09DF80730184A0C335B009D
:101A400013441B79002B07D1144B93F82D3001332D
:101A5000DAB2124B83F82D209DF80730009AD17925
:101A60000E4A0C335B0013440A461A719DF8073086
:101A7000009A117A094A0C335B0013440A465A71E2
:101A80009DF8073000991846FFF7ACFD002303933B
:101A9000039B184605B05DF804FB00BF80000020E2
:101AA000202D000000B585B001900B46ADF8023046
:101AB0004C4B93F82C30002B04D14B494FF4E4707D
:101AC00000F0D4F9BDF80230464A92F82D2093FB7D
:101AD000F2F101FB02F29B1A002B04D0424940F2C2
:101AE000C91000F0C3F91220FFF734FD3D4B1B7CF9
:101AF000DBB2022B06D11220FFF720FD1123039346
:101B0000039B6BE0374B1B7CDBB2012B35D1354B94
:101B1000DB68002B06D00220FFF710FD1123039392
:101B2000039B5BE02F4A019BD3602E4ABDF8023035
:101B300013832C4B93F82E3083F00103DBB2002B80
:101B400014D000BF4FF48070FFF7ABFC034683F066
:101B50000103DBB2002BF5D14FF48070FFF7B4FC2A
:101B6000BDF8023019460198FFF708FD0220FFF783
:101B7000E5FC00230393039B30E00220FFF7DEFC2B
:101B8000184B01221A74174A019B5360154ABDF87D
:101B900002301381134B0022DA60124B93F82E307F
:101BA000002B0BD00F4ABDF8023053830D4B93F836
:101BB0002D3019460198FFF7E1FC0CE0BDF802302A
:101BC00019460198FFF7DAFC4FF48070FFF77CFCB0
:101BD0000020FFF757FC00230393039B184605B032
:101BE0005DF804FB80000020202D000000B583B0CC
:101BF000124B93F82C30002B04D1114940F21320E2
:101C000000F034F9002301930C4B1B7CDBB2012B59
:101C100002D0082301930BE0084B93F82E30002BE1
:101C200003D00020FFF72EFC02E00420FFF72AFC7F
:101C3000019B184603B05DF804FB00BF8000002044
:101C4000202D000084B001900B46ADF80230BDF8A5
:101C50000230019A134400221A60BDF80230019A42
:101C600013441B680393039B00BF04B0704782B00A
:101C700001900B46ADF80230BDF80230019A1344D2
:101C80001B68002B14BF01230023DBB2184602B0EF
:101C9000704782B001900091019BD3F80423009B10
:101CA0001340002B14BF01230023DBB2184602B0FF
:101CB000704782B00190019B9B0003F5A0739BB21B
:101CC000184602B0704782B001904FF48032019BF9
:101CD00002FA03F3184602B0704700B587B00390CC
:101CE000029113468DF8073000238DF8173030E04D
:101CF0009DF817301846FFF7DCFF0346ADF81430A7
:101D00009DF817301846FFF7DEFF0490BDF8143039
:101D100019460398FFF7ABFF0346002B14D0049934
:101D20000398FFF7B6FF0346002B0DD0BDF8143023
:101D300019460398FFF786FF029B1B68029A5168B9
:101D4000BDF81420104698479DF8173001338DF8E0
:101D500017309DF817209DF807309A42C8D300BF6E
:101D600000BF07B05DF804FB08B504220249034830
:101D7000FFF7B3FF00BF08BDB000002000800040A7
:101D800086B003900291019201238DF817309DF8DF
:101D90001730204A039B13601E4A029B53601D4A62
:101DA000019B9360039B44F20102934212D0039B78
:101DB00044F20202934220D1019B164AD360154B94
:101DC000DB681B68134A9361124BDB685B68114A3E
:101DD000D36112E0019B0F4A13610E4B1B699B6894
:101DE0000C4A53610B4B1B691B680A4A9361094BF0
:101DF0001B695B68074AD36100BF72B600BF00BFB2
:101E00009DF81730DBB2002BFAD162B600BF00BFDD
:101E100006B07047C800002000B587B0039002915B
:101E2000019272B600BF039B44F20102934207D0B5
:101E3000039B44F20202934205D1019B059303E008
:101E4000019B049300E000BF074B1B6803F00103F4
:101E5000002B00D000BE019A02990398FFF790FF73
:101E600000BF07B05DF804FBF0ED00E000B585B001
:101E700003460091ADF80630BDF806300293009B92
:101E8000039302AB1A46002144F20200FFF7C4FF9D
:101E900000BF05B05DF804FB00B583B0264B00938E
:101EA000A8220021009800F0CBFD009B03221A61BC
:101EB000009B03225A61009B204A9A61009B204AA2
:101EC000DA61009B4FF480621A62009B00229A62E2
:101ED000009B00225A62009B0022DA62009B174A94
:101EE0001A66009B174A5A66009B10229A66009B4E
:101EF00000221A67009B0022DA66009B00225A67C4
:101F0000BFF35F8F002301930CE0019BC3F10F032C
:101F10000D4AD15C009A019B13440A461A70019B3A
:101F200001330193019B0F2BEFD9BFF35F8F00BFEC
:101F300003B05DF804FB00BFE8000020902D000016
:101F400090010020900500209C2D000000B58BB072
:101F500003900291019200230893039BDB6807938F
:101F6000039B1B690693069A079B9A4205D9069A1A
:101F7000079BD31A013B099307E0039B9A680699D4
:101F8000079BCB1A1344013B0993039B9A68079B59
:101F9000D31A099A934228BF13460993099A019BC1
:101FA000934228BF13460993039B5A68079B134427
:101FB0000593099A0299059800F010FD089A099B6B
:101FC00013440893029A099B13440293019A099BB4
:101FD000D31A0193079A099B13440793039B9B68A9
:101FE000079A9A4201D100230793BFF35F8F039BA7
:101FF000079ADA60019B002BB2D1089B18460BB000
:102000005DF804FB00B589B0039002910192039B37
:10201000DB680793039B9A68079BD31A0693069A7B
:10202000019B9A4211D9039B5A68079B134404935E
:10203000019A0299049800F0D1FCBFF35F8F079AD0
:10204000019B1A44039BDA601FE0069B0593039BE8
:102050005A68079B13440493059A0299049800F068
:10206000BDFC019A069BD31A0593039B5B680493FE
:10207000029A069B1344059A1946049800F0AEFC98
:10208000BFF35F8F039B059ADA6000BF09B05DF86C
:1020900004FB86B00190019B1B690493019BDB68E4
:1020A0000393049A039B9A4208D8019B9A68039B66
:1020B000D21A049B1344013B059304E0049A039B4A
:1020C000D31A013B0593059B184606B070470000E4
:1020D00000B589B0039002910192029B0693039B85
:1020E0005A1C13465B001344DB00204A134405933B
:1020F000059B5B69022B29D0022B2ED8002B02D026
:10210000012B13D029E00598FFF7C3FF0490049A30
:10211000019B9A4202D20023079321E0019B07937F
:10212000019A06990598FFF76DFF19E00598FFF7EA
:10213000B0FF0490019A049B934228BF1346079373
:10214000079A06990598FFF75DFF09E0019A06993D
:102150000598FFF7FBFE079002E00023079300BFFE
:10216000079B184609B05DF804FB00BFE80000209B
:1021700000B589B00390029101920F4B0793079B22
:102180001B78DBB2532B01D0FFF786FEEFF31183F0
:102190004FF0200181F311880693019A0299039868
:1021A000FFF796FF0590069B83F31188059B184661
:1021B00009B05DF804FB00BFE800002000B585B061
:1021C00001900091009800F0CEFB0390039A0099D3
:1021D0000198FFF7CDFF0346184605B05DF804FBF4
:1021E00008B5FFF759FE00BF08BD10B582B0044620
:1021F00000698DF8071078B1D4E900239A4231D2F2
:102200006269531C63618154D4E90501884229D174
:10221000204600F02CF825E0E06850B1D4E9002C0D
:1022200062451FD2531CB3EB0C0318BF0B468354FB
:1022300018E0A06858B1D4E9002C624512D2531CB2
:10224000B3EB0C0318BFCBB240F822300AE0236A8C
:1022500043B1D4E90001884204D20DF107012046C0
:102260000122984720680130206002B010BD426909
:102270004AB110B50446036A002B1CBF2169984778
:102280000020606110BD7047012A0ADB70B514465A
:102290000D46064630462946FFF7A7FF013CF9D810
:1022A00070BD7047CB0605D489054CBF3021202175
:1022B000FFF7EABF704738B5044600F0F1FB05466A
:1022C00020460021242200F0BBFBE56138BD81B02F
:1022D00070B58BB014460D4606460F930FA80090BC
:1022E00001A8FFF7E8FF0295009A049601A821468D
:1022F00000F006F80BB0BDE8704001B07047000078
:102300002DE9F04F8BB01446894682460020CAF86A
:1023100000000DF1160CACF10100019019F8011B41
:10232000252908D0002900F061825046FFF75DFFA3
:102330000DF1160CF2E70027494619F8012BA2F11E
:102340002003102B0DD88020DFE803F0091B1B1998
:102350001B1B1B151B1B32181B101B1B12004020C4
:102360000DE05E2A0DD14FF4805008E0102006E009
:102370004FF4007003E04FF4004000E020200743DA
:10238000DAE701F10109A2F13000C0B209284FF0EB
:1023900000001AD819F8011B00EB800002EB400086
:1023A0003038A1F13002D2B20A2A0A46F2D30CE048
:1023B00054F8042B002A104648BF5042102303EA69
:1023C000D26217434A7801F102092E2A0BD14946FD
:1023D00011F8012B2A2A09D199F8012054F804BBDD
:1023E00009F1020918E04FF0000B1EE0A2F13003E2
:1023F000DBB2092B4FF0000B14D811F8013B0BEBAB
:102400008B0902EB4902A2F1300BA3F13002D2B2E8
:102410000A2A1A46F1D38946BBF1000F05D447F4C6
:10242000807702E047F480778946A2F16801CBB259
:10243000C90141EA5301C9B209292AD8DFE801F0EC
:10244000121E082929290529290519F8012B20E040
:10245000494611F8012B6C2A15D199F8012009F190
:1024600002090DE0494611F8012B682A0ED199F8AE
:10247000012009F1020947F008070AE019F8012BC9
:1024800047F0020705E047F0010701E047F00407C5
:10249000894620EAE076622A20DDA2F16300152851
:1024A0003FF63CAFDFE810F03E00170016001600C4
:1024B00016001600170016001600160016009F00E2
:1024C0004B000B01160016002F00160055001600D9
:1024D0001600220022E747F480473EE0252A00F05C
:1024E0008F80582A40F0938147F40057F8054FEA4F
:1024F000076048BF27F40077782A43F2580125D1B6
:1025000043F2780122E0A0462468002C04BF42F682
:10251000CD54C0F20004F805204600F1428100F0DD
:1025200022FA41E1A0462478013E5046394632461F
:10253000FFF7B8FE50462146FFF757FE45E1F80584
:102540004FEA076048BF27F40077302101EAE070C6
:1025500004E0F80548BF27F40077002004907804D1
:102560004FEA8770029604D4002808D4231D002166
:102570000BE0002812D454F8040BC11714E0E01D3E
:1025800020F0070404F10803616820687D0713D474
:1025900017F0080512D0C0B200210FE0E01D20F0B6
:1025A0000704616854F8080B7B0709D43B070AD578
:1025B00040F3C01140B206E080B200211C4623E087
:1025C00040F3C03100B2002907DBBB061AD47B06FA
:1025D000049D48BF2025049516E00023404263EB8C
:1025E00001012D230FE054F8040B3907DAF800102D
:1025F00000F1FA80BA0752BF0160002206C08DE6E2
:10260000252192E62B230493FB0548BF27F400778E
:10261000FB0558BF4FF0010B00266E2A22DD6F3AF2
:10262000092A00F27B80DFE802F005577979797991
:102630002379795750EA010270D0C20842EA417208
:102640000625134665F3DF000CF80600013652EA52
:10265000D1004FEAD1014FEAD20040EA4172184658
:10266000EFD15BE0582A37D0642A18BF692A55D1C8
:1026700050EA010252D003940C460546380407D5AF
:1026800006F00300032802BF2C200CF806000136D8
:10269000E04628460A22002300F0C2F800EB800240
:1026A000A5EB420242F0300208F806200136D5F1CF
:1026B00009020022A241C446DED3039C2EE002960A
:1026C0003806232101EAE070049047F48077002166
:1026D00054F8040B4FF0080B002650EA01021DD0FD
:1026E000BA0442F6AD52C0F200025CBF42F6BD52DF
:1026F000C0F20002030943EA017500F00F002B4607
:10270000105C0CF80600013655EA11104FEA111161
:102710004FEA151040EA01751846EED10394049D66
:10272000029A4FF0FF30FF2D88BF0138ABEB060156
:1027300021EAE17806EB0801A2EB010B002D18BF9E
:102740008344B80506D4504639465A46FFF7AAFDD9
:102750004FF0000BFF2D019C04D9290A5046FFF7CA
:1027600044FD00E01DB150462946FFF73EFD5046AE
:1027700039465A46FFF796FD504630214246FFF74C
:1027800083FD012E05DBA15D5046FFF72EFD013EC6
:10279000F9D8F8060DF1160C039C7FF5BFAD5A462B
:1027A0001BE0594600F0F4F8054627F40077361A86
:1027B000504639463246FFF775FD35B114F8011B16
:1027C0005046FFF712FD013DF8D108F10404F80668
:1027D0000DF1160C7FF5A2AD324650462021FFF7D1
:1027E00053FD0DF1160C99E5017097E5DAF80C0030
:1027F00028B1DAE9001291423CBF0022425450460F
:10280000FFF735FDDAF800000BB0BDE8F08F002AC5
:102810007FF484AD5046FFF72AFD4FF0FF30F3E719
:10282000002B35D129B9B0FBF2FC0CFB120260463B
:102830007047914215D22DE9F041B2FA82F39A40E5
:102840009940D3F1200C30FA0CFC51EA0C0198406D
:1028500000F04EF8280036FA03F200210023BDE80C
:10286000F081F0B5B1FBF2FC0CFB1211B2FA82F36D
:102870009A409940D3F1200630FA06F63143984049
:1028800000F036F8614628003200DA400023F0BD3F
:10289000F3B5B3FA83FC49085FEA300013FA0CF38E
:1028A000DCF1200432FA04F423430CB41A0000F0E3
:1028B0001FF80CBC33FA0CF3DCF11F0C35FA0CF5E5
:1028C00018BF013D03BCA5FB026705FB0377801B16
:1028D000B941904271EB030C05D3821A71EB0303EB
:1028E000681C0021F0BD02000B0028000021F0BD93
:1028F000940D4FF6C2752D02B5FBF4F4D60A0136DD
:1029000004FB04F5A5FB0656F64306EB0416550832
:1029100032BF00277708013505FB1677A6FB07476E
:102920007F0807EBC63714001500E7FB02457F1B45
:102930004D1C0400E7FB014505FB1206A64284BFBF
:10294000013DB618964224BF0135B61A704700BF44
:10295000082907D3416040F2A051C2F2000108608B
:10296000002101607047017881B100214FF00132F0
:102970004358C2FA53F30431002BF9D093FAA3F071
:10298000B0FA80F001EBD0000438704700207047A7
:1029900000291CBF0278002A01D10020704700B531
:1029A000D0F800E00429034609D34FF0013CCCFAEB
:1029B0005EF222B9043953F804EF0329F7D8181A44
:1029C0004FF00132C2FA5EF292FAA2F2B2FA82F249
:1029D000B1EBD20F88BFD108084400BD5AB384467A
:1029E00090EA01039B071FD1830707D011F8013B31
:1029F00000F8013B013AF7D11CE08446203A09D3A4
:102A00002DE9F007B1E8F807A0E8F807203AF9D275
:102A1000BDE8F0071C3205D451F8043B40F8043BF4
:102A2000043AF9D2043205D011F8013B00F8013B19
:102A3000013AF9D16046704700220B0011001A00DC
:102A400084465AB3830704D000F8011B013AF9D138
:102A500024E0C9B241EA012141EA0141202A11D30F
:102A6000203A2DE9F0030B460C460D460E460F4664
:102A700088468946A0E8FA03203AFBD2BDE8F00375
:102A800020320BD0042A05D340F8041B043A05D0A9
:102A9000042AF9D200F8011B013AFBD160467047C5
:102AA00040F2A450C2F200000068002804BF40F2C7
:102AB0000400C2F20000704784460020002918BFBD
:102AC000002A0ED0097848B200280BD4BCF1000FC0
:102AD00018BFCCF800100021C3E90011002818BF6E
:102AE000012070476FF0010070477F298EBF6FF0A3
:102AF00001000170012070477F280BD842F6E87270
:102B0000C0F20002515C42F66872C0F20002105C32
:102B10000840704700207047A0F161011A2938BFB2
:102B200020387047A0F141011A2938BF40F0200039
:102B300070477F280BD842F6E872C0F20002515C61
:102B400042F66872C0F20002105C08407047002034
:102B50007047A0F161011A2938BF20387047A0F1F1
:0C2B600041011A2938BF40F020007047E6
:102B6C002E2E2F2E2E2F2E2E2F2E2E2F2E2E2F2E74
:102B7C002E2F6D6F64756C65732F6E7266782F686F
:102B8C00616C2F6E72665F6770696F2E6800000053
:102B9C00010006000000000002000002000000001E
:102BAC000000000025642C25640A0000436170615C
:102BBC006369746976652053656E736F7220546512
:102BCC0073740A0001000600000000000000000001
:102BDC00000000000338FDD8704700002E2E2F2E69
:102BEC002E2F2E2E2F2E2E2F2E2E2F2E2E2F696E79
:102BFC00746567726174696F6E2F6E7266782F6E72
:102C0C007266785F676C75652E6800002E2E2F2E0D
:102C1C002E2F2E2E2F2E2E2F2E2E2F2E2E2F6D6F43
:102C2C0064756C65732F6E7266782F68616C2F6E8D
:102C3C0072665F6770696F2E6800000000000050BC
:102C4C0000030050433A5C55736572735C6D616EA2
:102C5C0064795C4465736B746F705C6E5246355F5F
:102C6C0053444B5F31372E312E305F6464646535CD
:102C7C0036305C6E5246355F53444B5F31372E31E4
:102C8C002E305F646464653536305C6D6F64756CD2
:102C9C0065735C6E7266785C647269766572735C7F
:102CAC007372635C6E7266785F6770696F74652EA1
:102CBC00630000002E2E2F2E2E2F2E2E2F2E2E2F79
:102CCC002E2E2F2E2E2F696E746567726174696FAC
:102CDC006E2F6E7266782F6E7266785F676C756594
:102CEC002E6800002E2E2F2E2E2F2E2E2F2E2E2F16
:102CFC002E2E2F2E2E2F6D6F64756C65732F6E72AA
:102D0C0066782F68616C2F6E72665F7361616463A5
:102D1C002E680000433A5C55736572735C6D616E8E
:102D2C0064795C4465736B746F705C6E5246355F8E
:102D3C0053444B5F31372E312E305F6464646535FC
:102D4C0036305C6E5246355F53444B5F31372E3113
:102D5C002E305F646464653536305C6D6F64756C01
:102D6C0065735C6E7266785C647269766572735CAE
:102D7C007372635C6E7266785F73616164632E63F9
:102D8C00000000005465726D696E616C00000000FB
:102D9C000000000000005454522052454747455350
:102DAC0000303132333435363738394142434445BB
:102DBC0046303132333435363738396162636465C5
:102DCC0066286E756C6C2900992E0000102F00007F
:102DDC009C2E000053756E646179004D6F6E6461BA
:102DEC00790054756573646179005765646E657319
:102DFC006461790054687572736461790046726914
:102E0C0064617900536174757264617900004A6180
:102E1C006E75617279004665627275617279004DEA
:102E2C006172636800417072696C004D6179004A8F
:102E3C00756E65004A756C79004175677573740021
:102E4C0053657074656D626572004F63746F626573
:102E5C0072004E6F76656D62657200446563656DD8
:102E6C006265720000414D00504D0000256D2F250C
:102E7C00642F25790025483A254D3A2553002561C4
:102E8C00202562202565202554202559004300006B
:102E9C00F92A0000192B0000252B0000332B000011
:102EAC00532B00005F2B0000EB2A0000B92A000016
:102EBC0053756E004D6F6E00547565005765640058
:102ECC00546875004672690053617400004A616E63
:102EDC0000466562004D617200417072004D61796F
:102EEC00004A756E004A756C004175670053657039
:102EFC00004F6374004E6F760044656300002E0033
:102F0C00000000000A2F00000C2F00000C2F000006
:102F1C000C2F00000C2F00000C2F00000C2F0000B9
:102F2C000C2F00000C2F00000C2F0000FFFFFFFFE8
:102F3C00FFFFFFFFFFFFFFFFFFFF0000E02D000082
:102F4C00BC2E00001A2E0000D92E0000712E00009D
:102F5C00782E0000812E00008A2E000020202020D8
:102F6C0020202020206828282828202020202020ED
:102F7C00202020202020202020202020481010104D
:102F8C001010101010101010101010108484848465
:102F9C00848484848484101010101010108181811A
:102FAC008181810101010101010101010101010185
:102FBC000101010101010110101010101082828218
:102FCC008282820202020202020202020202020255
:102FDC00020202020202021010101020000703204D
:092FEC000417020108571040808F
:102FF8000090D003D42D0000D42D0000D42D000063
:08300800D42D0000D42D0000BE
:0400000300000219DE
:00000001FF
