:1000000000000420850300006D0300006F03000062
:10001000710300007303000075030000000000007E
:100020000000000000000000000000007703000056
:1000300079030000000000007B0300007D03000046
:100040007F0300007F0300007F0300007F030000A8
:100050007F0300007F030000911100007F03000078
:10006000991B00007F0300007F0300007F03000056
:100070007F0300007F0300007F0300007F03000078
:100080007F0300007F0300007F0300007F03000068
:100090007F0300007F0300007F0300007F03000058
:1000A0007F0300007F0300007F0300007F03000048
:1000B0007F0300007F03000000000000000000003C
:1000C0007F0300007F0300007F0300007F03000028
:1000D0007F0300007F0300007F0300007F03000018
:1000E0007F0300007F0300007F030000000000008A
:1000F000000000007F030000000000007F030000FC
:1001000000000000000000000000000000000000EF
:1001100000000000000000000000000000000000DF
:1001200000000000000000000000000000000000CF
:1001300000000000000000000000000000000000BF
:1001400000000000000000000000000000000000AF
:10015000000000000000000000000000000000009F
:10016000000000000000000000000000000000008F
:10017000000000000000000000000000000000007F
:10018000000000000000000000000000000000006F
:10019000000000000000000000000000000000005F
:1001A000000000000000000000000000000000004F
:1001B000000000000000000000000000000000003F
:1001C000000000000000000000000000000000002F
:1001D000000000000000000000000000000000001F
:1001E000000000000000000000000000000000000F
:1001F00000000000000000000000000000000000FF
:1002000039493A480A1A02D0072291438D463849A3
:1002100038480A1A06D00722914381F3098802223E
:1002200082F3148834483549354A00F03EF83548A1
:100230003549364A00F039F835483649364A00F033
:1002400034F836483649374A00F02FF836483749EF
:10025000374A00F02AF837483749384A00F025F87D
:1002600037483849384A00F020F8384838490022E1
:1002700000F033F837483849002200F02EF83748AC
:100280003749091A02F05AF8364A90472448254956
:10029000884205D00268043003B4904703BCF7E7F6
:1002A00000200021304A9047FEE7884214D0521ABD
:1002B00012D003460B4313430324234206D10368A1
:1002C00004300B600431043AF9D1704703780130EF
:1002D0000B700131013AF9D17047884202D00270A7
:1002E0000130FAE7704700000000042000E003201E
:1002F000000004200000042024260000000000204C
:100300000C000020E0030000E0030000BC2300001C
:10031000242600000000002000000020BC23000074
:10032000BC230000BC230000BC230000BC23000051
:10033000BC230000BC230000BC23000024260000D6
:10034000302600000C0000200C0000200C000020D3
:10035000A4000020A4000020A4000020A40000208D
:10036000A4200020AD030000DD1C0000FEE7FEE736
:10037000FEE7FEE7FEE7FEE7FEE7FEE7FEE7FEE755
:1003800000F002B8FFF7FCBF0F484FF007018843A9
:1003900085460E4880470E48016841F470010160AF
:1003A000BFF34F8FBFF36F8FFFF72ABF09480A498A
:1003B0000A4A884207D0521A05D0037801300B70E0
:1003C0000131013AF9D170470000042015210000E5
:1003D00088ED00E0BC2300000000002000000020A9
:1003E00086B003900291019201238DF817309DF899
:1003F0001730204A039B13601E4A029B53601D4A1C
:10040000019B9360039B44F20102934212D0039B31
:1004100044F20202934220D1019B164AD360154B4D
:10042000DB681B68134A9361124BDB685B68114AF7
:10043000D36112E0019B0F4A13610E4B1B699B684D
:100440000C4A53610B4B1B691B680A4A9361094BA9
:100450001B695B68074AD36100BF72B600BF00BF6B
:100460009DF81730DBB2002BFAD162B600BF00BF97
:1004700006B070470C00002000B583B002900091D8
:10048000019244F2010071466A4600F003F803B09D
:1004900000BD00BF00B587B003900291019272B613
:1004A00000BF039B44F20102934207D0039B44F236
:1004B0000202934205D1019B059303E0019B049343
:1004C00000E000BF074B1B6803F00103002B00D0C6
:1004D00000BE019A02990398FFF782FF00BF07B0A0
:1004E0005DF804FBF0ED00E072B600BF034B1B6843
:1004F0000133024A136000BF704700BF2C00002088
:10050000064B1B68013B054A1360044B1B68002B1C
:1005100001D162B600BF00BF704700BF2C000020B1
:1005200000B583B0019000F025F80346012B03D0FD
:100530000449432000F03BF8FFF7D6FF00BF03B0AB
:100540005DF804FBBC23000000B583B003468DF8C2
:10055000073000F00FF80346012B03D00449512067
:1005600000F025F8FFF7CCFF00BF03B05DF804FBF7
:10057000BC23000084B0EFF305830193019BC3F318
:1005800008030393039B002B0DD1EFF31483009317
:10059000009B0293029B03F00103002B0CBF01237D
:1005A0000023DBB200E00123184604B0704700B519
:1005B00085B003460091ADF80630BDF806300293D1
:1005C000009B039302AB1A46002144F20200FFF79E
:1005D00061FF00BF05B05DF804FB0000054B1B7810
:1005E000002B04D1034B01221A70002300E0852365
:1005F000184670473000002082B003468DF807305F
:100600009DF90730002B0CDB9DF8073003F01F022B
:1006100005499DF907305B09012000FA02F241F813
:10062000232000BF02B0704700E100E082B0034623
:1006300000918DF807309DF90730002B0ADB009BF5
:10064000DAB20C499DF907305201D2B20B4483F85B
:1006500000230BE0009BDAB207499DF8073003F056
:100660000F03043B5201D2B20B441A7600BF02B012
:10067000704700BF00E100E000ED00E082B00190B3
:10068000019B1B0B5BB2184602B0704700B583B0EC
:1006900003460A468DF8073013468DF806309DF85C
:1006A0000630072B03D908496B20FFF780FF9DF820
:1006B00006209DF9073011461846FFF7B7FF00BF27
:1006C00003B05DF804FB00BF3424000000B583B024
:1006D00003468DF807309DF907301846FFF78CFF69
:1006E00000BF03B05DF804FB82B003468DF807300D
:1006F0009DF8073003F1804303F5C043184602B06C
:10070000704700B583B00346ADF80630BDF806303B
:10071000184600F026F803461B68012B0CBF012386
:100720000023DBB2184603B05DF804FB00B585B0CA
:100730000346ADF80630BDF80630184600F011F853
:1007400003461A4600231360BDF80630184600F031
:1007500008F803461B680393039B00BF05B05DF8D0
:1007600004FB82B00346ADF80630BDF8063003F155
:10077000804303F5C043184602B0704782B0019031
:10078000034A019BC2F8043300BF02B0704700BFA8
:100790000060004082B00190034BD3F80423019B1A
:1007A0001340184602B070470060004082B00190CC
:1007B000054A019B03F5A27352F823301B0A03F08C
:1007C0003F03184602B070470060004082B00190BD
:1007D000064A019B03F5A27352F823301B0C03F069
:1007E0000303DBB2184602B0704700BF0060004050
:1007F00084B00190094A019B03F5A27352F823309B
:1008000043F0030303930549019B03F5A273039A85
:1008100041F8232000BF04B0704700BF00600040D3
:1008200084B00390029111461A460B468DF80730AA
:1008300013468DF80630184A039B03F5A27352F84D
:100840002330154923F4991323F4F853039A02F53E
:10085000A27241F82230104A039B03F5A27352F8AA
:100860002320029B1B0203F47C519DF807301B04DC
:1008700003F4403319439DF806301B0503F480133D
:100880000B4305491A43039B03F5A27341F8232048
:1008900000BF04B0704700BF0060004000B583B0E7
:1008A0000190019B1B68184600F028F90346002BB5
:1008B00004D10B494FF4F670FFF779FE019B1B68DA
:1008C0001F2B02D84FF0A04306E0019B1B6803F0EA
:1008D0001F02019B1A60034B184603B05DF804FB2E
:1008E000642400000003005000B585B00190084664
:1008F00011461A4603468DF803300B468DF8023038
:1009000013468DF8013001AB1846FFF7C7FF03907F
:100910009DF803209DF802305B001A439DF80130DA
:100920009B001A439DF818301B0242EA03019DF810
:100930001C301B04019A1943039B02F5E07243F833
:10094000221000BF05B05DF804FB00B585B0039030
:100950000023019300230093002301220121039827
:10096000FFF7C2FF00BF05B05DF804FB00B585B01E
:1009700001900B468DF8033001AB1846FFF78EFF50
:100980000390019A039B02F5E07253F82230019A1A
:1009900023F44031039B02F5E07243F82210019AE0
:1009A000039B02F5E07253F822109DF803301B04FC
:1009B000019A1943039B02F5E07243F8221000BF2D
:1009C00005B05DF804FB00B585B0019001AB184699
:1009D000FFF764FF0390019B012202FA03F319461B
:1009E000039800F02EF800BF05B05DF804FB00B5D9
:1009F00085B0019001AB1846FFF750FF0390019BB3
:100A0000012202FA03F31946039800F024F800BF0C
:100A100005B05DF804FB00B585B0019001AB184648
:100A2000FFF73CFF0390019A039B02F5E07253F835
:100A300022301B0C03F00303DBB2184605B05DF84F
:100A400004FB82B001900091019B009AC3F8082535
:100A500000BF02B0704782B001900091019B009AE4
:100A6000C3F80C2500BF02B07047000088B00390A7
:100A700002910192164A05AB92E8030083E8030055
:100A8000039B079319E0079B9B0020336B4453F8AB
:100A90000C3CD3F82025019B1A60079B9B00203358
:100AA0006B4453F80C3C019A1268C3F82025019B53
:100AB00004330193079B01330793039A029B13446A
:100AC000079A9A42DFD300BF00BF08B0704700BF4B
:100AD0009424000000B585B0019001AB1846FFF7E3
:100AE000DDFE0390019B012202FA03F31A46039BE9
:100AF000C3F8202500BF05B05DF804FB84B0019069
:100B0000019B5B09029300230393029B002B03D0FC
:100B1000029B012B04D007E04FF0FF33039303E067
:100B20004FF6FF73039300BF019B03F01F03019374
:100B3000039A019B22FA03F303F00103DBB2184688
:100B400004B0704784B001900091009B0393019B17
:100B5000DB080293019B03F0070301930122019B31
:100B600002FA03F30399029A0A44127813401846D2
:100B700004B0704784B001900091009B0393019BE7
:100B8000DB080293019B03F007030193039A029B86
:100B900013441B785AB20121019B01FA03F35BB2A3
:100BA000134359B2039A029B1344CAB21A7000BF8E
:100BB00004B0704782B00190074A019B134424336C
:100BC00093F90030B3F1FF3F14BF01230023DBB2E0
:100BD000184602B0704700BF3400002082B0019078
:100BE0000C4A019B1344243393F90030002B09DB9A
:100BF000084A019B1344243393F90030072B01DC8E
:100C0000012300E0002303F00103DBB2184602B029
:100C1000704700BF3400002084B00390029101921D
:100C20008DF80330029B59B20E4A039B13442433C0
:100C30000A461A700B49029B019A41F823209DF83D
:100C4000033083F00103DBB2002B08D0029B083B8A
:100C5000039A51B2034A13440A4683F8542000BF52
:100C600004B070473400002082B00190044A019B18
:100C700013442433FE221A7000BF02B0704700BF35
:100C80003400002082B00190044A019B13442433B5
:100C9000FF221A7000BF02B0704700BF340000206E
:100CA00000B583B0019004490198FFF763FF00BFCE
:100CB00003B05DF804FB00BF8900002082B0019002
:100CC000044A019B1344243393F90030184602B0C0
:100CD000704700BF3400002082B00190034A019B9E
:100CE00052F82330184602B0704700BF340000208D
:100CF00084B00190074A019B1344543393F90030A8
:100D00008DF80F309DF80F3023F0C003184604B063
:100D1000704700BF3400002084B00190074A019B57
:100D20001344543393F900308DF80F309DF80F3091
:100D30009B09DBB2184604B0704700BF34000020A6
:100D400000B589B00390029113468DF80730FF2358
:100D50008DF81F309DF80730002B01D0002300E0F4
:100D6000082305939DF80730002B01D0082300E0ED
:100D700009230493059B069314E00F4A069B52F83F
:100D80002330B3F1FF3F0AD19DF80730029A06994C
:100D90000398FFF741FF069B8DF81F3006E0069B86
:100DA00001330693069A049B9A42E6D39DF91F30BD
:100DB000184609B05DF804FB3400002082B00346F9
:100DC0008DF807309DF80730094A4FF0FF3142F89F
:100DD00023109DF80730072B07D99DF80730083BF3
:100DE000034A1344FF2283F8542000BF02B0704727
:100DF0003400002000B583B02D4B93F85B30002BFE
:100E000003D008230093009B4EE000238DF80730A9
:100E100011E09DF807301846FFF770FE0346002BDF
:100E200004D09DF807301846FFF72CFF9DF80730D7
:100E300001338DF807309DF807302F2BE9D90023B7
:100E40008DF8073009E09DF807301846FFF7B6FF28
:100E50009DF8073001338DF807309DF80730082BD7
:100E6000F1D906220021134801F078FA1248FFF761
:100E700005FC034606211846FFF708FC0E48FFF75D
:100E8000FDFB03461846FFF721FC4FF4BE70FFF749
:100E90004DFC4FF00040FFF771FC054B012283F839
:100EA0005B2000230093009B184603B05DF804FB11
:100EB00034000020890000200060004000B585B0AB
:100EC000019000910198FFF719FE0346002B04D111
:100ED0002D4940F24910FFF76AFB2C4B93F85B3029
:100EE000012B04D028494FF4A570FFF760FB009B4D
:100EF000002B04D1244940F24B10FFF758FB00238C
:100F000003930198FFF756FE0346002B02D00823F7
:100F1000039334E0009B9B78002B19D00122002121
:100F20000198FFF70DFF03468DF80B309DF90B304C
:100F3000B3F1FF3F09D09DF90B00009B1A78009B8D
:100F40005B780199FFF76CFC05E00423039302E052
:100F50000198FFF789FE039B002B10D1009B5B7863
:100F6000012B03D10198FFF72EFD02E00198FFF756
:100F70003EFD0198FFF7E9FC0198FFF791FE039B06
:100F8000184605B05DF804FB9C24000034000020E6
:100F900000B583B001900198FFF7B0FD0346002B28
:100FA00004D1144940F2B310FFF701FB0198FFF799
:100FB00001FE0346002B04D10E494FF4DA70FFF70F
:100FC000F6FA0198FFF70AFE0346002B04D10949FF
:100FD00040F2B510FFF7EBFA074A019B13442433A4
:100FE00093F900301846FFF703FC00BF03B05DF82B
:100FF00004FB00BF9C2400003400002000B583B037
:1010000001900198FFF77AFD0346002B04D10D49AA
:1010100040F2C710FFF7CBFA0198FFF7DFFD034658
:10102000002B04D107494FF4E470FFF7C0FA019890
:10103000FFF744FE0346DBB29B00DBB2184603B069
:101040005DF804FB9C24000000B585B00190019878
:10105000FFF7D4FF03468DF80F309DF80F30184688
:10106000FFF742FB0346184605B05DF804FB00B5E8
:1010700085B00190019A02210020FFF7F7FC0023C0
:1010800003930BE0039B9B00019A13441B68002B06
:1010900001D0012306E0039B01330393039B012B43
:1010A000F0D90023184605B05DF804FB00B587B001
:1010B0000190002305935BE0344A059B13445433AD
:1010C00093F90030B3F1FF3F4ED00598FFF710FEC3
:1010D000049001990498FFF735FD0346002B44D096
:1010E0000598FFF719FE03468DF80F300498FFF7B7
:1010F00092FC03468DF80E309DF80E30022B01D184
:10110000032300E002238DF80D309DF80D301946C1
:101110000498FFF72BFC0498FFF7DCFC0498FFF71A
:10112000CDFD03461846FFF7D7FD0290029B002B2A
:101130001BD09DF80F30032B0FD09DF80E30022BE3
:1011400003D19DF80F30012B07D09DF80E30032BF3
:101150000BD19DF80F30022B07D19DF80F20029B79
:1011600011460498984700E000BF059B01330593A2
:10117000059B002BA0D00198FFF779FF0346002BB9
:1011800097D100BF00BF07B05DF804FB340000201A
:1011900000B58BB00023099301AB00221A605A609E
:1011A0004FF48073ADF81E3001230693002308939B
:1011B00021E0BDF81E301846FFF7A3FA0346002BC6
:1011C0000ED00698FFF7E6FA0346002B08D0BDF8CC
:1011D0001E301846FFF7AAFA099A069B1343099393
:1011E000069B5B000693BDF81E300433ADF81E303D
:1011F000089B01330893089B072BDAD94FF4BE7084
:10120000FFF77FFA0346002B0DD04FF4BE70FFF7B7
:101210008DFA099B43F00043099301AB1A46022162
:101220000020FFF723FC099BDBB2002B29D0012310
:1012300006930023089321E0069A099B1340002B94
:1012400016D00898FFF7B2FA05900898FFF7BEFA93
:1012500003468DF813300898FFF73EFD0390039B7B
:10126000002B05D09DF81320039B11460598984745
:10127000069B5B000693089B01330893089B072B92
:10128000DAD9099B002B03DA01AB1846FFF70EFFF2
:1012900000BF0BB05DF804FB82B003468DF8073049
:1012A0009DF80730044A012101FA03F3C2F804351E
:1012B00000BF02B0704700BF00F0014084B0034699
:1012C000029101928DF80F3008499DF80F30A2333A
:1012D000029A41F83320054A9DF80F30A233DB0013
:1012E0001344019A5A6000BF04B0704700F00140F7
:1012F00082B003468DF807309DF80730012202FACC
:1013000003F3184602B0704700B583B003468DF86A
:1013100007309DF807301846FFF7EAFF0346C3F38E
:101320001303002B14BF01230023DBB2184603B0C4
:101330005DF804FB82B001900123184602B07047AB
:1013400000B583B003468DF807309DF80730184686
:10135000FFF7CEFF03461846FFF7ECFF034618469B
:1013600003B05DF804FB000000B583B003468DF8C0
:1013700007309DF807301846FFF7BAFF0246064BC4
:101380001B681340002B14BF01230023DBB2184657
:1013900003B05DF804FB00BF9000002000B583B0EF
:1013A00003468DF807309DF807301846FFF7A0FF79
:1013B0000246044B1B681343024A136000BF03B08C
:1013C0005DF804FB9000002000B587B00190002379
:1013D00005930023039304230593244B03930023D5
:1013E0008DF8133037E00020FFF79AF89DF813309E
:1013F0001846FFF77DFF0246039B1340002B15D0D4
:101400009DF813301846FFF7AFFF034683F0010342
:10141000DBB2002B0AD09DF813301846FFF7BEFF51
:10142000019B9DF813201A70002305930020FFF7FD
:101430008BF8059B002B12D09DF813301846FFF750
:1014400057FF0346DB43039A134003939DF8133081
:1014500001338DF81330039B002BC4D100E000BF93
:10146000059B184607B05DF804FB00BFFFFF0F00A7
:1014700000B587B00346029101928DF80F30029BB0
:10148000002B02D0019B002B01D10E2325E000236D
:1014900005939DF80F301846FFF736FF034683F09B
:1014A0000103DBB2002B02D00723059314E09DF863
:1014B0000F301846FFF758FF034683F00103DBB2F5
:1014C000002B02D00823059306E09DF80F30019A07
:1014D00002991846FFF7F2FE059B184607B05DF823
:1014E00004FB00B585B003468DF807300023039355
:1014F0009DF807301846FFF723FF034683F00103EA
:10150000DBB2002B02D0072303931AE09DF80730CB
:101510001846FFF7F9FE0346002B0DD09DF8073063
:101520001846FFF721FF034683F00103DBB2002BCF
:1015300002D00823039304E09DF807301846FFF714
:10154000ABFE039B184605B05DF804FB82B0034672
:101550008DF807309DF90730002B0CDB9DF8073024
:1015600003F01F0205499DF907305B09012000FACD
:1015700002F241F8232000BF02B0704700E100E012
:1015800082B0034600918DF807309DF90730002B9B
:101590000ADB009BDAB20C499DF907305201D2B246
:1015A0000B4483F800230BE0009BDAB207499DF857
:1015B000073003F00F03043B5201D2B20B441A76FA
:1015C00000BF02B0704700BF00E100E000ED00E0A6
:1015D00082B00190019B1B0B5BB2184602B07047B2
:1015E00000B583B003460A468DF8073013468DF8E0
:1015F00006309DF80630072B03D908496B20FEF70B
:10160000D6FF9DF806209DF9073011461846FFF7D2
:10161000B7FF00BF03B05DF804FB00BF0C2500005E
:1016200000B583B003468DF807309DF907301846A2
:10163000FFF78CFF00BF03B05DF804FB82B00190A0
:101640000B468DF803309DF80330019A13440122B4
:101650001A6000BF02B0704784B001900B46ADF82D
:101660000230BDF80230019A134400221A60BDF81E
:101670000230019A13441B680393039B00BF04B01C
:10168000704782B001900B46ADF80230BDF80230D1
:10169000019A13441B68002B14BF01230023DBB203
:1016A000184602B0704782B001900091019BD3F8B8
:1016B0000022009B1A43019BC3F8002200BF02B026
:1016C000704782B001900091019BD3F80022009BEB
:1016D000DB431A40019BC3F8002200BF02B07047F1
:1016E00082B001900091019B009AC3F8042300BFCF
:1016F00002B0704782B001900091019B009AC3F83C
:10170000082300BF02B0704782B001900091019B96
:10171000D3F80423009B1340002B14BF01230023A4
:10172000DBB2184602B0704782B001900B468DF8CC
:101730000330019BD3F8043523F003029DF80330F6
:1017400003F003031A43019BC3F8042500BF02B052
:10175000704782B001900B468DF80330019BD3F89F
:10176000083523F003029DF8033003F003031A4306
:10177000019BC3F8082500BF02B0704782B00190FA
:101780000B468DF80330019BD3F8103523F00F0280
:101790009DF8033003F00F031A43019BC3F8102593
:1017A00000BF02B0704784B003900B4601928DF8E1
:1017B0000B309DF80B20039B02F5A872019943F8AA
:1017C000221000BF04B0704782B00190019B9B00C3
:1017D00003F5A0739BB2184602B0704782B0019027
:1017E0004FF48032019B02FA03F3184602B07047AF
:1017F00010B588B0039002910192039B1B791A46A1
:1018000013465B0013449B006F4A13440693029BEC
:10181000002B03D16D494A20FEF7C9FE019B002B26
:1018200003D16A494B20FEF7C2FE069B1B7A002BB0
:1018300003D008230593059BC2E0039B1B68644A01
:1018400093420FD1029B9B78012B63D0029B9B7824
:10185000002B5FD0029B9B78022B5BD0029B9B7876
:10186000032B57D0039B1B685A4A93420FD1029B0C
:101870009B78012B4ED0029B9B78002B4AD0029B79
:101880009B78022B46D0029B9B78032B42D0039B74
:101890001B68514A93420FD1029B9B78012B39D090
:1018A000029B9B78002B35D0029B9B78022B31D07A
:1018B000029B9B78032B2DD0039B1B68474A9342C6
:1018C0000FD1029B9B78012B24D0029B9B78002B8D
:1018D00020D0029B9B78022B1CD0029B9B78032B71
:1018E00018D0039B1B683E4A93420FD1029B9B7802
:1018F000012B0FD0029B9B78002B0BD0029B9B7877
:10190000022B07D0029B9B78032B03D02F495F202B
:10191000FEF74DFE069B019A1A60029B5A68069BD1
:101920005A6000238DF81F3010E0039B1C689DF85F
:101930001F301846FFF748FF034619462046FFF7B9
:101940008BFE9DF81F3001338DF81F30039B5B79B0
:101950009DF81F209A42E8D3039B1B681846FFF7A7
:1019600037FE03461A46029BDB7819461046FFF7FE
:1019700037FE039B1B681846FFF72AFE03461846EE
:10198000FFF74EFE039B1A68029B5B7819461046D0
:10199000FFF7CAFE039B1A68029B9B781946104604
:1019A000FFF7D7FE039B1A68029B1B781946104667
:1019B000FFF7E4FE069B01221A7200230593059BA4
:1019C000184608B010BD00BF940000203C25000060
:1019D000008000400090004000A0004000A00140B6
:1019E00000B0014000B583B00190019B1B791946FE
:1019F000114A0B465B000B449B00134408331B78D1
:101A0000012B03D00D498F20FEF7D1FD019B1B68F0
:101A100000211846FFF712FE019B1B791946064A62
:101A20000B465B000B449B001344083302221A70E0
:101A300000BF03B05DF804FB940000203C250000CB
:101A400010B586B0039001921A460B468DF80B3004
:101A500013468DF80A309DF80B301846FFF7BEFE8E
:101A600005909DF80A30002B12D0039B1C689DF84E
:101A70000B301846FFF7A8FE034619462046FFF72D
:101A8000EBFD039B1B6805991846FFF729FE05E04F
:101A9000039B1B6805991846FFF72CFE039B1B68E8
:101AA0009DF80B10019A1846FFF77DFE00BF06B0A7
:101AB00010BD00B585B0039001921A460B468DF813
:101AC0000B301346ADF80830039B1A689DF80B30B5
:101AD00040F2011101FA03F319461046FFF7F1FD38
:101AE000039B1B68BDF8082011461846FFF7DBFD75
:101AF0009DF818309DF80B10019A0398FFF7A0FF8E
:101B000000BF05B05DF804FB00B587B003900291FB
:101B100013468DF8073000238DF8173030E09DF81C
:101B200017301846FFF750FE0346ADF814309DF805
:101B300017301846FFF752FE0490BDF814301946CE
:101B40000398FFF79EFD0346002B14D004990398D9
:101B5000FFF7DAFD0346002B0DD0BDF8143019460F
:101B60000398FFF779FD029B1B68029A5168BDF844
:101B70001420104698479DF8173001338DF8173020
:101B80009DF817209DF807309A42C8D300BF00BFC8
:101B900007B05DF804FB000008B5042202490348C1
:101BA000FFF7B2FF00BF08BD940000200080004096
:101BB00082B001900B46ADF80230BDF80230019AB8
:101BC0001344184602B0704700B583B001900B462D
:101BD000ADF80230019B1B68BDF802201146184683
:101BE000FFF7E6FF0346184603B05DF804FB82B03A
:101BF00003460091ADF8063000BF02B07047000008
:101C000000B58BB0314A02AB12681146198002331D
:101C1000120C1A7002AB19460E20FFF74FF909900B
:101C2000099B0893089B002B04D0294A2B21089874
:101C3000FEF722FC002300930123264A00212648B8
:101C4000FFF737FF0DF10B031846FFF7BDFB0990B7
:101C5000099B0793079B002B04D01D4A312107984D
:101C6000FEF70AFC4FF4A0711B48FFF7ADFF06908A
:101C70000E20FFF7E9F905909DF80B30059A0699BB
:101C80001846FFF7F5FB0990099B0493049B002B72
:101C900004D00F4A37210498FEF7EEFB9DF80B3075
:101CA0001846FFF71EFC0990099B0393039B002B2A
:101CB00004D0074A3A210398FEF7DEFB0E20FFF717
:101CC00067F900BF0BB05DF804FB00BF18260000E9
:101CD000AC250000400D03000000002000B587B0D7
:101CE000FEF77CFC0590059B0493049B002B04D01D
:101CF000174A47210498FEF7BFFBFFF77BF80590D2
:101D0000059B0393039B002B04D0114A4A2103989F
:101D1000FEF7B2FB0F4A6B4692E8030083E803002C
:101D20006B460D4A19460D48FFF762FD0590059B6D
:101D30000293029B002B04D0054A4E210298FEF725
:101D40009BFBFFF75DFF0548FFF74CFEFEE700BF7A
:101D5000AC2500001C260000EF1B00000000002046
:101D6000BFF34F8F00BF064BDB6803F4E06204490A
:101D7000044B1343CB60BFF34F8F00BF00BFFDE7A1
:101D800000ED00E00400FA0582B0164B1B680193D9
:101D9000154B1B680093019B082B1FD1009B052B43
:101DA0001AD801A252F823F0C11D0000C51D000081
:101DB000C91D0000CD1D0000D11D0000D51D000073
:101DC00001230CE001230AE0012308E0012306E0DF
:101DD000012304E0012302E0012300E00023184670
:101DE00002B07047300100103401001082B0164B71
:101DF0001B680193154B1B680093019B082B1FD197
:101E0000009B052B1AD801A252F823F0251E0000D2
:101E1000291E00002D1E0000311E0000351E00008E
:101E2000391E000001230CE001230AE0012308E031
:101E3000012306E0012304E0012302E0012300E086
:101E40000023184602B07047300100103401001022
:101E500082B0164B1B680193154B1B680093019BC6
:101E6000082B1FD1009B052B1AD801A252F823F092
:101E7000891E00008D1E0000911E0000951E0000AE
:101E8000991E00009D1E000001230CE000230AE0C3
:101E9000002308E0002306E0002304E0002302E022
:101EA000002300E00023184602B070473001001004
:101EB0003401001082B0164B1B680193154B1B6850
:101EC0000093019B082B1FD1009B052B1AD801A260
:101ED00052F823F0ED1E0000F11E0000F51E000078
:101EE000F91E0000FD1E0000011F000001230CE090
:101EF00000230AE0002308E0002306E0002304E0BA
:101F0000002302E0002300E00023184602B07047DF
:101F1000300100103401001082B0164B1B68019391
:101F2000154B1B680093019B082B1FD1009B052BB1
:101F30001AD801A252F823F0511F0000551F0000CB
:101F4000591F00005D1F0000611F0000651F000099
:101F500001230CE000230AE0002308E0002306E050
:101F6000002304E0002302E0002300E000231846E1
:101F700002B07047300100103401001082B0164BDF
:101F80001B680193154B1B680093019B082B1FD105
:101F9000009B052B1AD801A252F823F0B51F0000B0
:101FA000B91F0000BD1F0000C11F0000C51F0000B9
:101FB000C91F000001230CE000230AE0002308E011
:101FC000002306E0002304E0002302E0002300E0F9
:101FD0000023184602B07047300100103401001091
:101FE00082B0164B1B680193154B1B680093019B35
:101FF000082B1FD1009B052B1AD801A252F823F001
:10200000192000001D2000002120000025200000D4
:10201000292000002D20000001230CE001230AE00C
:10202000012308E0012306E0012304E0012302E08C
:10203000012300E00023184602B070473001001071
:102040003401001082B0164B1B680193154B1B68BE
:102050000093019B082B1FD1009B052B1AD801A2CE
:1020600052F823F07D200000812000008520000030
:10207000892000008D2000009120000000230CE04A
:1020800000230AE0002308E0002306E0012304E027
:10209000012302E0012300E00023184602B070474C
:1020A000300100103401001008B5FFF7CBFF0346E4
:1020B000002B07D04FF010234FF08042D3F80832A6
:1020C000C2F8583500BF08BD00BF044BD3F8003438
:1020D000002BFAD000BF00BF704700BF00E00140F6
:1020E00000B583B00190054A019BC2F80435FFF7A3
:1020F000EBFF00BF03B05DF804FB00BF00E0014050
:10210000024B034A1A6000BF704700BF080000205E
:102110000090D00308B5FFF737FE0346002B0ED022
:102120004FF080430022C3F80C214FF0804300227F
:10213000C3F810214FF080430022C3F83825FFF781
:1021400055FE0346002B76D04FF08053734AD3F8E8
:102150000434C2F820354FF08053704AD3F8083465
:10216000C2F824354FF080536C4AD3F80C34C2F8CF
:1021700028354FF08053694AD3F81034C2F82C3513
:102180004FF08053654AD3F81434C2F830354FF01D
:102190008053624AD3F81834C2F834354FF0805374
:1021A0005E4AD3F81C34C2F840354FF080535B4A86
:1021B000D3F82034C2F844354FF08053574AD3F84F
:1021C0002434C2F848354FF08053544AD3F82834A9
:1021D000C2F84C354FF08053504AD3F82C34C2F833
:1021E00050354FF080534D4AD3F83034C2F854354F
:1021F0004FF08053494AD3F83434C2F860354FF079
:102200008053464AD3F83834C2F864354FF08053CF
:10221000424AD3F83C34C2F868354FF080533F4A05
:10222000D3F84034C2F86C354FF080533B4AD3F8B2
:102230004434C2F87035FFF70BFE0346002B02D082
:10224000374B384A1A60FFF735FE0346002B03D0A0
:10225000354BFB22C3F81825FFF75EFE0346002B23
:102260000AD0324B1B6823F00F02314B1B6803F07E
:102270000F032E4913430B60FFF780FE0346002B2C
:1022800003D02C4B4FF400721A60FFF7A9FE0346EF
:10229000002B0DD04FF08043D3F8003403F001033E
:1022A000002B05D04FF080436FF00102C3F80024EB
:1022B000214BD3F88830204A43F47003C2F88830A9
:1022C000BFF34F8F00BFBFF36F8F00BFFFF7ECFE70
:1022D0004FF01023D3F80032002B05DB4FF0102312
:1022E000D3F80432002B15DA0120FFF7F9FE4FF086
:1022F00010231222C3F80022FFF7E6FE4FF010234E
:102300001222C3F80422FFF7DFFE0020FFF7E8FEE9
:10231000FFF726FDFFF7F4FE00BF08BD00C0004038
:102320008C5600404881030000F00040E40E00405D
:10233000580200104096024000ED00E0082907D343
:10234000416040F2A001C2F200010860002101607A
:102350007047000000220B0011001A0084465AB397
:10236000830704D000F8011B013AF9D124E0C9B277
:1023700041EA012141EA0141202A11D3203A2DE905
:10238000F0030B460C460D460E460F46884689461E
:10239000A0E8FA03203AFBD2BDE8F00320320BD0CC
:1023A000042A05D340F8041B043A05D0042AF9D2C4
:0C23B00000F8011B013AFBD160467047A9
:1023BC00433A5C55736572735C6D616E64795C4411
:1023CC0065736B746F705C6E5246355F53444B5F34
:1023DC0031372E312E305F646464653536305C6E77
:1023EC005246355F53444B5F31372E312E305F648C
:1023FC006464653536305C636F6D706F6E656E74DA
:10240C00735C6C69627261726965735C7574696C1A
:10241C005C6170705F7574696C5F706C6174666F11
:10242C00726D2E63000000002E2E2F2E2E2F2E2EBE
:10243C002F2E2E2F2E2E2F2E2E2F696E7465677237
:10244C006174696F6E2F6E7266782F6E7266785F2C
:10245C00676C75652E6800002E2E2F2E2E2F2E2EBB
:10246C002F2E2E2F2E2E2F2E2E2F6D6F64756C650A
:10247C00732F6E7266782F68616C2F6E72665F6751
:10248C0070696F2E680000000000005000030050BF
:10249C00433A5C55736572735C6D616E64795C4430
:1024AC0065736B746F705C6E5246355F53444B5F53
:1024BC0031372E312E305F646464653536305C6E96
:1024CC005246355F53444B5F31372E312E305F64AB
:1024DC006464653536305C6D6F64756C65735C6E09
:1024EC007266785C647269766572735C7372635C35
:1024FC006E7266785F6770696F74652E630000009A
:10250C002E2E2F2E2E2F2E2E2F2E2E2F2E2E2F2EDA
:10251C002E2F696E746567726174696F6E2F6E729F
:10252C0066782F6E7266785F676C75652E68000032
:10253C00433A5C55736572735C6D616E64795C448F
:10254C0065736B746F705C6E5246355F53444B5FB2
:10255C0031372E312E305F646464653536305C6EF5
:10256C005246355F53444B5F31372E312E305F640A
:10257C006464653536305C6D6F64756C65735C6E68
:10258C007266785C647269766572735C7372635C94
:10259C006E7266785F74696D65722E630000000060
:1025AC00433A5C55736572735C6D616E64795C441F
:1025BC0065736B746F705C6E5246355F53444B5F42
:1025CC0031372E312E305F646464653536305C6E85
:1025DC005246355F53444B5F31372E312E305F649A
:1025EC006464653536305C6578616D706C65735C00
:1025FC007065726970686572616C5C6770696F7424
:10260C00655C6D61696E2E630000000003000100C3
:08261C000400030600000000A9
:0C26240000800040000400000090D00383
:040000030000038571
:00000001FF
